{
  "contractName": "Oracle",
  "abi": [
    {
      "inputs": [],
      "name": "BNT",
      "outputs": [
        {
          "internalType": "contract IERC20Token",
          "name": "",
          "type": "address"
        }
      ],
      "stateMutability": "view",
      "type": "function",
      "constant": true
    },
    {
      "inputs": [],
      "name": "Depot",
      "outputs": [
        {
          "internalType": "contract SynthetixDepot",
          "name": "",
          "type": "address"
        }
      ],
      "stateMutability": "view",
      "type": "function",
      "constant": true
    },
    {
      "inputs": [],
      "name": "Exchange",
      "outputs": [
        {
          "internalType": "contract CurveExchange",
          "name": "",
          "type": "address"
        }
      ],
      "stateMutability": "view",
      "type": "function",
      "constant": true
    },
    {
      "inputs": [],
      "name": "Rates",
      "outputs": [
        {
          "internalType": "contract SynthetixRates",
          "name": "",
          "type": "address"
        }
      ],
      "stateMutability": "view",
      "type": "function",
      "constant": true
    },
    {
      "inputs": [],
      "name": "opynFactory",
      "outputs": [
        {
          "internalType": "contract OptionsFactory",
          "name": "",
          "type": "address"
        }
      ],
      "stateMutability": "view",
      "type": "function",
      "constant": true
    },
    {
      "inputs": [],
      "name": "uniFactory",
      "outputs": [
        {
          "internalType": "contract UniswapFactory",
          "name": "",
          "type": "address"
        }
      ],
      "stateMutability": "view",
      "type": "function",
      "constant": true
    },
    {
      "inputs": [
        {
          "internalType": "contract IERC20Token[]",
          "name": "tokens",
          "type": "address[]"
        }
      ],
      "name": "getUniswapData",
      "outputs": [
        {
          "components": [
            {
              "internalType": "uint256",
              "name": "tokenBalance",
              "type": "uint256"
            },
            {
              "internalType": "uint256",
              "name": "ethBalance",
              "type": "uint256"
            }
          ],
          "internalType": "struct Oracle.uniswapData[]",
          "name": "",
          "type": "tuple[]"
        }
      ],
      "stateMutability": "view",
      "type": "function",
      "constant": true
    },
    {
      "inputs": [
        {
          "internalType": "contract IERC20Token[]",
          "name": "tokens",
          "type": "address[]"
        },
        {
          "internalType": "contract BancorConverter[]",
          "name": "converters",
          "type": "address[]"
        }
      ],
      "name": "getBancorData",
      "outputs": [
        {
          "components": [
            {
              "internalType": "uint32",
              "name": "eWeight",
              "type": "uint32"
            },
            {
              "internalType": "uint32",
              "name": "tWeight",
              "type": "uint32"
            },
            {
              "internalType": "uint32",
              "name": "tFee",
              "type": "uint32"
            },
            {
              "internalType": "uint256",
              "name": "tBalance",
              "type": "uint256"
            },
            {
              "internalType": "uint256",
              "name": "eBalance",
              "type": "uint256"
            }
          ],
          "internalType": "struct Oracle.bancorData[]",
          "name": "",
          "type": "tuple[]"
        }
      ],
      "stateMutability": "view",
      "type": "function",
      "constant": true
    },
    {
      "inputs": [
        {
          "internalType": "contract BalancerPool[]",
          "name": "pools",
          "type": "address[]"
        }
      ],
      "name": "getBalancerData",
      "outputs": [
        {
          "components": [
            {
              "internalType": "address",
              "name": "pool",
              "type": "address"
            },
            {
              "components": [
                {
                  "internalType": "address",
                  "name": "token",
                  "type": "address"
                },
                {
                  "internalType": "bool",
                  "name": "isBound",
                  "type": "bool"
                },
                {
                  "internalType": "uint256",
                  "name": "index",
                  "type": "uint256"
                },
                {
                  "internalType": "uint256",
                  "name": "denorm",
                  "type": "uint256"
                },
                {
                  "internalType": "uint256",
                  "name": "balance",
                  "type": "uint256"
                }
              ],
              "internalType": "struct BalancerPool.balancerToken[]",
              "name": "tokens",
              "type": "tuple[]"
            },
            {
              "internalType": "uint256",
              "name": "fee",
              "type": "uint256"
            }
          ],
          "internalType": "struct BalancerPool.balancerData[]",
          "name": "",
          "type": "tuple[]"
        }
      ],
      "stateMutability": "view",
      "type": "function",
      "constant": true
    },
    {
      "inputs": [],
      "name": "getSynthetixData",
      "outputs": [
        {
          "components": [
            {
              "internalType": "uint256",
              "name": "rate",
              "type": "uint256"
            },
            {
              "internalType": "uint256",
              "name": "balance",
              "type": "uint256"
            }
          ],
          "internalType": "struct Oracle.synthetixData",
          "name": "",
          "type": "tuple"
        }
      ],
      "stateMutability": "view",
      "type": "function",
      "constant": true
    },
    {
      "inputs": [
        {
          "internalType": "int128[]",
          "name": "ids",
          "type": "int128[]"
        },
        {
          "internalType": "contract yToken[]",
          "name": "tokens",
          "type": "address[]"
        }
      ],
      "name": "getCurveData",
      "outputs": [
        {
          "components": [
            {
              "internalType": "uint256",
              "name": "balance",
              "type": "uint256"
            },
            {
              "internalType": "uint256",
              "name": "pricePerShare",
              "type": "uint256"
            },
            {
              "internalType": "uint256",
              "name": "A",
              "type": "uint256"
            }
          ],
          "internalType": "struct Oracle.curveData[]",
          "name": "",
          "type": "tuple[]"
        }
      ],
      "stateMutability": "view",
      "type": "function",
      "constant": true
    },
    {
      "inputs": [
        {
          "internalType": "int128[]",
          "name": "ids",
          "type": "int128[]"
        },
        {
          "internalType": "address",
          "name": "exchange",
          "type": "address"
        }
      ],
      "name": "getCurveCData",
      "outputs": [
        {
          "components": [
            {
              "internalType": "uint256",
              "name": "balance",
              "type": "uint256"
            },
            {
              "internalType": "uint256",
              "name": "A",
              "type": "uint256"
            }
          ],
          "internalType": "struct Oracle.curveCTokenData[]",
          "name": "",
          "type": "tuple[]"
        }
      ],
      "stateMutability": "view",
      "type": "function",
      "constant": true
    },
    {
      "inputs": [
        {
          "internalType": "address[]",
          "name": "bases",
          "type": "address[]"
        },
        {
          "internalType": "address[]",
          "name": "quotes",
          "type": "address[]"
        }
      ],
      "name": "getOasisData",
      "outputs": [
        {
          "components": [
            {
              "components": [
                {
                  "internalType": "uint256",
                  "name": "id",
                  "type": "uint256"
                },
                {
                  "internalType": "address",
                  "name": "maker",
                  "type": "address"
                },
                {
                  "internalType": "uint256",
                  "name": "makerAmount",
                  "type": "uint256"
                },
                {
                  "internalType": "uint256",
                  "name": "takerAmount",
                  "type": "uint256"
                }
              ],
              "internalType": "struct Oracle.Offer[]",
              "name": "bids",
              "type": "tuple[]"
            },
            {
              "components": [
                {
                  "internalType": "uint256",
                  "name": "id",
                  "type": "uint256"
                },
                {
                  "internalType": "address",
                  "name": "maker",
                  "type": "address"
                },
                {
                  "internalType": "uint256",
                  "name": "makerAmount",
                  "type": "uint256"
                },
                {
                  "internalType": "uint256",
                  "name": "takerAmount",
                  "type": "uint256"
                }
              ],
              "internalType": "struct Oracle.Offer[]",
              "name": "asks",
              "type": "tuple[]"
            }
          ],
          "internalType": "struct Oracle.oasisData[]",
          "name": "",
          "type": "tuple[]"
        }
      ],
      "stateMutability": "view",
      "type": "function",
      "constant": true
    },
    {
      "inputs": [
        {
          "internalType": "address",
          "name": "base",
          "type": "address"
        },
        {
          "internalType": "address",
          "name": "quote",
          "type": "address"
        }
      ],
      "name": "getOrderBook",
      "outputs": [
        {
          "components": [
            {
              "internalType": "uint256",
              "name": "id",
              "type": "uint256"
            },
            {
              "internalType": "address",
              "name": "maker",
              "type": "address"
            },
            {
              "internalType": "uint256",
              "name": "makerAmount",
              "type": "uint256"
            },
            {
              "internalType": "uint256",
              "name": "takerAmount",
              "type": "uint256"
            }
          ],
          "internalType": "struct Oracle.Offer[]",
          "name": "bids",
          "type": "tuple[]"
        },
        {
          "components": [
            {
              "internalType": "uint256",
              "name": "id",
              "type": "uint256"
            },
            {
              "internalType": "address",
              "name": "maker",
              "type": "address"
            },
            {
              "internalType": "uint256",
              "name": "makerAmount",
              "type": "uint256"
            },
            {
              "internalType": "uint256",
              "name": "takerAmount",
              "type": "uint256"
            }
          ],
          "internalType": "struct Oracle.Offer[]",
          "name": "asks",
          "type": "tuple[]"
        }
      ],
      "stateMutability": "view",
      "type": "function",
      "constant": true
    },
    {
      "inputs": [
        {
          "internalType": "contract cToken[]",
          "name": "tokens",
          "type": "address[]"
        }
      ],
      "name": "getCompoundData",
      "outputs": [
        {
          "internalType": "uint256[]",
          "name": "",
          "type": "uint256[]"
        }
      ],
      "stateMutability": "view",
      "type": "function",
      "constant": true
    },
    {
      "inputs": [],
      "name": "getOpynData",
      "outputs": [
        {
          "components": [
            {
              "internalType": "address",
              "name": "oTokenAddress",
              "type": "address"
            },
            {
              "internalType": "string",
              "name": "name",
              "type": "string"
            },
            {
              "internalType": "string",
              "name": "symbol",
              "type": "string"
            },
            {
              "internalType": "uint256",
              "name": "expiry",
              "type": "uint256"
            }
          ],
          "internalType": "struct Oracle.opynData[]",
          "name": "",
          "type": "tuple[]"
        }
      ],
      "stateMutability": "view",
      "type": "function",
      "constant": true
    }
  ],
  "bytecode": "0x6080604052600080546001600160a01b031990811673c0a47dfe034b400b47bdad5fecda2621de6c4d9517909155600180548216731f573d6fb3f13d689ff844b4ce37794d79a7ff1c17905560028054821673e1f64079ada6ef07b03982ca34f1dd7152aa3b86179055600380548216739d7f70af5df5d5cc79780032d47a34615d1f1d771790556004805482167345f783cce6b7ff23b2ab2d70e416cdb7d6055f5117905560058054821673794e6e91555438afc3ccf1c5076a74f42133d08d1790556006805490911673cc5d905b9c2c8c9329eb4e25dc086369d6c7777c1790553480156100ee57600080fd5b506130e2806100fe6000396000f3fe608060405234801561001057600080fd5b50600436106101005760003560e01c806389b4a36f11610097578063ac33334211610066578063ac333342146101f6578063c93fc09d14610216578063db5ac06b14610236578063ecd84b9a1461025657610100565b806389b4a36f146101c957806389c51200146101d15780639e83a6c2146101d9578063a03394d2146101ee57610100565b80632e44bc0d116100d35780632e44bc0d146101845780634191e2fd146101995780634e60860e146101b957806376771d4b146101c157610100565b806307e3a36c146101055780630a77b0781461012e578063203d39ff14610143578063294bea9f14610164575b600080fd5b61011861011336600461271e565b610276565b6040516101259190612f80565b60405180910390f35b610136610389565b6040516101259190612b69565b61015661015136600461245d565b6103a5565b604051610125929190612bb1565b610177610172366004612622565b610a22565b6040516101259190612f40565b61018c610c32565b6040516101259190612fdb565b6101ac6101a7366004612592565b610dc2565b6040516101259190612bdf565b610136611360565b61013661137c565b610136611398565b6101366113b4565b6101e16113d0565b6040516101259190612e8f565b6101366117ba565b61020961020436600461265d565b6117d6565b6040516101259190612ceb565b6102296102243660046127ae565b611b47565b6040516101259190612d71565b610249610244366004612531565b611d10565b6040516101259190612dfd565b6102696102643660046127f3565b611de2565b6040516101259190612db1565b8051606090818167ffffffffffffffff8111801561029357600080fd5b506040519080825280602002602001820160405280156102bd578160200160208202803683370190505b50905060005b828110156103815760008582815181106102d957fe5b602002602001015173ffffffffffffffffffffffffffffffffffffffff1663182df0f56040518163ffffffff1660e01b815260040160206040518083038186803b15801561032657600080fd5b505afa15801561033a573d6000803e3d6000fd5b505050506040513d601f19601f8201168201806040525081019061035e91906129dc565b90508083838151811061036d57fe5b6020908102919091010152506001016102c3565b509392505050565b60045473ffffffffffffffffffffffffffffffffffffffff1681565b6005546040517f7ca9429a0000000000000000000000000000000000000000000000000000000081526060918291600091829173ffffffffffffffffffffffffffffffffffffffff90911690637ca9429a906104079088908a90600401612b8a565b60206040518083038186803b15801561041f57600080fd5b505afa158015610433573d6000803e3d6000fd5b505050506040513d601f19601f8201168201806040525081019061045791906129dc565b9050806104e85760408051600180825281830190925290816020015b61047b61215b565b815260200190600190039081610473579050509350604051806080016040528060008152602001600073ffffffffffffffffffffffffffffffffffffffff168152602001600081526020016000815250846000815181106104d857fe5b60200260200101819052506106e3565b8067ffffffffffffffff811180156104ff57600080fd5b5060405190808252806020026020018201604052801561053957816020015b61052661215b565b81526020019060019003908161051e5790505b506005546040517f0374fc6f00000000000000000000000000000000000000000000000000000000815291955073ffffffffffffffffffffffffffffffffffffffff1690630374fc6f906105939088908a90600401612b8a565b60206040518083038186803b1580156105ab57600080fd5b505afa1580156105bf573d6000803e3d6000fd5b505050506040513d601f19601f820116820180604052508101906105e391906129dc565b91506105ee82612067565b846000815181106105fb57fe5b602090810291909101015260015b818110156106e1576005546040517f943911bc00000000000000000000000000000000000000000000000000000000815273ffffffffffffffffffffffffffffffffffffffff9091169063943911bc90610667908690600401612fc4565b60206040518083038186803b15801561067f57600080fd5b505afa158015610693573d6000803e3d6000fd5b505050506040513d601f19601f820116820180604052508101906106b791906129dc565b92506106c283612067565b8582815181106106ce57fe5b6020908102919091010152600101610609565b505b6005546040517f7ca9429a00000000000000000000000000000000000000000000000000000000815260009173ffffffffffffffffffffffffffffffffffffffff1690637ca9429a9061073c908a908a90600401612b8a565b60206040518083038186803b15801561075457600080fd5b505afa158015610768573d6000803e3d6000fd5b505050506040513d601f19601f8201168201806040525081019061078c91906129dc565b90508061081d5760408051600180825281830190925290816020015b6107b061215b565b8152602001906001900390816107a8579050509350604051806080016040528060008152602001600073ffffffffffffffffffffffffffffffffffffffff1681526020016000815260200160008152508460008151811061080d57fe5b6020026020010181905250610a18565b8067ffffffffffffffff8111801561083457600080fd5b5060405190808252806020026020018201604052801561086e57816020015b61085b61215b565b8152602001906001900390816108535790505b506005546040517f0374fc6f00000000000000000000000000000000000000000000000000000000815291955073ffffffffffffffffffffffffffffffffffffffff1690630374fc6f906108c8908a908a90600401612b8a565b60206040518083038186803b1580156108e057600080fd5b505afa1580156108f4573d6000803e3d6000fd5b505050506040513d601f19601f8201168201806040525081019061091891906129dc565b925061092383612067565b8460008151811061093057fe5b602090810291909101015260015b81811015610a16576005546040517f943911bc00000000000000000000000000000000000000000000000000000000815273ffffffffffffffffffffffffffffffffffffffff9091169063943911bc9061099c908790600401612fc4565b60206040518083038186803b1580156109b457600080fd5b505afa1580156109c8573d6000803e3d6000fd5b505050506040513d601f19601f820116820180604052508101906109ec91906129dc565b93506109f784612067565b858281518110610a0357fe5b602090810291909101015260010161093e565b505b5050509250929050565b8051606090818167ffffffffffffffff81118015610a3f57600080fd5b50604051908082528060200260200182016040528015610a7957816020015b610a66612199565b815260200190600190039081610a5e5790505b50905060005b82811015610381576000858281518110610a9557fe5b6020908102919091010151600080546040517f06f2bf62000000000000000000000000000000000000000000000000000000008152929350909173ffffffffffffffffffffffffffffffffffffffff909116906306f2bf6290610afc908590600401612b69565b60206040518083038186803b158015610b1457600080fd5b505afa158015610b28573d6000803e3d6000fd5b505050506040513d601f19601f82011682018060405250810190610b4c919061243a565b905060008273ffffffffffffffffffffffffffffffffffffffff166370a08231836040518263ffffffff1660e01b8152600401610b899190612b69565b60206040518083038186803b158015610ba157600080fd5b505afa158015610bb5573d6000803e3d6000fd5b505050506040513d601f19601f82011682018060405250810190610bd991906129dc565b905060008273ffffffffffffffffffffffffffffffffffffffff16319050604051806040016040528083815260200182815250868681518110610c1857fe5b602002602001018190525050505050806001019050610a7f565b610c3a612199565b6003546040517fac82f6080000000000000000000000000000000000000000000000000000000081527f45544800000000000000000000000000000000000000000000000000000000009160009173ffffffffffffffffffffffffffffffffffffffff9091169063ac82f60890610cb5908590600401612fc4565b60206040518083038186803b158015610ccd57600080fd5b505afa158015610ce1573d6000803e3d6000fd5b505050506040513d601f19601f82011682018060405250810190610d0591906129dc565b90506000600260009054906101000a900473ffffffffffffffffffffffffffffffffffffffff1673ffffffffffffffffffffffffffffffffffffffff16634d0387fb6040518163ffffffff1660e01b815260040160206040518083038186803b158015610d7157600080fd5b505afa158015610d85573d6000803e3d6000fd5b505050506040513d601f19601f82011682018060405250810190610da991906129dc565b6040805180820190915292835260208301525091505090565b8051606090818167ffffffffffffffff81118015610ddf57600080fd5b50604051908082528060200260200182016040528015610e1957816020015b610e066121b3565b815260200190600190039081610dfe5790505b50905060005b82811015610381576000858281518110610e3557fe5b60200260200101519050600081905060008173ffffffffffffffffffffffffffffffffffffffff1663fde924f76040518163ffffffff1660e01b815260040160206040518083038186803b158015610e8c57600080fd5b505afa158015610ea0573d6000803e3d6000fd5b505050506040513d601f19601f82011682018060405250810190610ec491906128a5565b905060008273ffffffffffffffffffffffffffffffffffffffff16638d4e40836040518163ffffffff1660e01b815260040160206040518083038186803b158015610f0e57600080fd5b505afa158015610f22573d6000803e3d6000fd5b505050506040513d601f19601f82011682018060405250810190610f4691906128a5565b9050818015610f525750805b156113515760608373ffffffffffffffffffffffffffffffffffffffff1663be3bbd2e6040518163ffffffff1660e01b815260040160006040518083038186803b158015610f9f57600080fd5b505afa158015610fb3573d6000803e3d6000fd5b505050506040513d6000823e601f3d9081017fffffffffffffffffffffffffffffffffffffffffffffffffffffffffffffffe0168201604052610ff99190810190612495565b90506060815167ffffffffffffffff8111801561101557600080fd5b5060405190808252806020026020018201604052801561104f57816020015b61103c6121ea565b8152602001906001900390816110345790505b50905060005b825181101561128257600083828151811061106c57fe5b6020026020010151905060008773ffffffffffffffffffffffffffffffffffffffff16632f37b624836040518263ffffffff1660e01b81526004016110b19190612b69565b60206040518083038186803b1580156110c957600080fd5b505afa1580156110dd573d6000803e3d6000fd5b505050506040513d601f19601f8201168201806040525081019061110191906128a5565b905060008873ffffffffffffffffffffffffffffffffffffffff1663948d8ce6846040518263ffffffff1660e01b815260040161113e9190612b69565b60206040518083038186803b15801561115657600080fd5b505afa15801561116a573d6000803e3d6000fd5b505050506040513d601f19601f8201168201806040525081019061118e91906129dc565b905060008973ffffffffffffffffffffffffffffffffffffffff1663f8b2cb4f856040518263ffffffff1660e01b81526004016111cb9190612b69565b60206040518083038186803b1580156111e357600080fd5b505afa1580156111f7573d6000803e3d6000fd5b505050506040513d601f19601f8201168201806040525081019061121b91906129dc565b90506040518060a001604052808573ffffffffffffffffffffffffffffffffffffffff16815260200184151581526020018681526020018381526020018281525086868151811061126857fe5b602002602001018190525050505050806001019050611055565b5060008573ffffffffffffffffffffffffffffffffffffffff1663d4cadf686040518163ffffffff1660e01b815260040160206040518083038186803b1580156112cb57600080fd5b505afa1580156112df573d6000803e3d6000fd5b505050506040513d601f19601f8201168201806040525081019061130391906129dc565b905060405180606001604052808873ffffffffffffffffffffffffffffffffffffffff1681526020018381526020018281525089898151811061134257fe5b60200260200101819052505050505b50505050806001019050610e1f565b60015473ffffffffffffffffffffffffffffffffffffffff1681565b60005473ffffffffffffffffffffffffffffffffffffffff1681565b60025473ffffffffffffffffffffffffffffffffffffffff1681565b60065473ffffffffffffffffffffffffffffffffffffffff1681565b60606000600660009054906101000a900473ffffffffffffffffffffffffffffffffffffffff1673ffffffffffffffffffffffffffffffffffffffff1663857c26ff6040518163ffffffff1660e01b815260040160206040518083038186803b15801561143c57600080fd5b505afa158015611450573d6000803e3d6000fd5b505050506040513d601f19601f8201168201806040525081019061147491906129dc565b905060608167ffffffffffffffff8111801561148f57600080fd5b506040519080825280602002602001820160405280156114c957816020015b6114b6612231565b8152602001906001900390816114ae5790505b50905060005b828110156117b3576006546040517feeafd00b00000000000000000000000000000000000000000000000000000000815260009173ffffffffffffffffffffffffffffffffffffffff169063eeafd00b9061152e908590600401612fc4565b60206040518083038186803b15801561154657600080fd5b505afa15801561155a573d6000803e3d6000fd5b505050506040513d601f19601f8201168201806040525081019061157e919061243a565b9050600081905060008173ffffffffffffffffffffffffffffffffffffffff1663e184c9be6040518163ffffffff1660e01b815260040160206040518083038186803b1580156115cd57600080fd5b505afa1580156115e1573d6000803e3d6000fd5b505050506040513d601f19601f8201168201806040525081019061160591906129dc565b9050804210156117a85760608273ffffffffffffffffffffffffffffffffffffffff166306fdde036040518163ffffffff1660e01b815260040160006040518083038186803b15801561165757600080fd5b505afa15801561166b573d6000803e3d6000fd5b505050506040513d6000823e601f3d9081017fffffffffffffffffffffffffffffffffffffffffffffffffffffffffffffffe01682016040526116b191908101906128c1565b905060608373ffffffffffffffffffffffffffffffffffffffff166395d89b416040518163ffffffff1660e01b815260040160006040518083038186803b1580156116fb57600080fd5b505afa15801561170f573d6000803e3d6000fd5b505050506040513d6000823e601f3d9081017fffffffffffffffffffffffffffffffffffffffffffffffffffffffffffffffe016820160405261175591908101906128c1565b905060405180608001604052808673ffffffffffffffffffffffffffffffffffffffff1681526020018381526020018281526020018481525087878151811061179a57fe5b602002602001018190525050505b5050506001016114cf565b5091505090565b60035473ffffffffffffffffffffffffffffffffffffffff1681565b8151606090818167ffffffffffffffff811180156117f357600080fd5b5060405190808252806020026020018201604052801561182d57816020015b61181a61226f565b8152602001906001900390816118125790505b50905060005b82811015611b3c57600085828151811061184957fe5b6020026020010151905061185b61226f565b8173ffffffffffffffffffffffffffffffffffffffff16630e53aae989858151811061188357fe5b60200260200101516040518263ffffffff1660e01b81526004016118a79190612b69565b60a06040518083038186803b1580156118bf57600080fd5b505afa1580156118d3573d6000803e3d6000fd5b505050506040513d601f19601f820116820180604052508101906118f79190612962565b9050600081602001519050600081620f424003905060008473ffffffffffffffffffffffffffffffffffffffff1663579cd3ca6040518163ffffffff1660e01b815260040160206040518083038186803b15801561195457600080fd5b505afa158015611968573d6000803e3d6000fd5b505050506040513d601f19601f8201168201806040525081019061198c9190612a72565b905060008b878151811061199c57fe5b602002602001015173ffffffffffffffffffffffffffffffffffffffff166370a08231876040518263ffffffff1660e01b81526004016119dc9190612b69565b60206040518083038186803b1580156119f457600080fd5b505afa158015611a08573d6000803e3d6000fd5b505050506040513d601f19601f82011682018060405250810190611a2c91906129dc565b6001546040517f70a0823100000000000000000000000000000000000000000000000000000000815291925060009173ffffffffffffffffffffffffffffffffffffffff909116906370a0823190611a88908a90600401612b69565b60206040518083038186803b158015611aa057600080fd5b505afa158015611ab4573d6000803e3d6000fd5b505050506040513d601f19601f82011682018060405250810190611ad891906129dc565b90506040518060a001604052808663ffffffff1681526020018563ffffffff1681526020018463ffffffff16815260200183815260200182815250898981518110611b1f57fe5b602002602001018190525050505050505050806001019050611833565b509150505b92915050565b81516060908290828167ffffffffffffffff81118015611b6657600080fd5b50604051908082528060200260200182016040528015611ba057816020015b611b8d612199565b815260200190600190039081611b855790505b50905060005b82811015611d065760008473ffffffffffffffffffffffffffffffffffffffff1663065a80d8898481518110611bd857fe5b60200260200101516040518263ffffffff1660e01b8152600401611bfc9190612fcd565b60206040518083038186803b158015611c1457600080fd5b505afa158015611c28573d6000803e3d6000fd5b505050506040513d601f19601f82011682018060405250810190611c4c91906129dc565b905060008573ffffffffffffffffffffffffffffffffffffffff1663f446c1d06040518163ffffffff1660e01b815260040160206040518083038186803b158015611c9657600080fd5b505afa158015611caa573d6000803e3d6000fd5b505050506040513d601f19601f82011682018060405250810190611cce91906129dc565b9050604051806040016040528083815260200182815250848481518110611cf157fe5b60209081029190910101525050600101611ba6565b5095945050505050565b8151606090818167ffffffffffffffff81118015611d2d57600080fd5b50604051908082528060200260200182016040528015611d6757816020015b611d5461229d565b815260200190600190039081611d4c5790505b50905060005b82811015611b3c57606080611da8888481518110611d8757fe5b6020026020010151888581518110611d9b57fe5b60200260200101516103a5565b91509150604051806040016040528083815260200182815250848481518110611dcd57fe5b60209081029190910101525050600101611d6d565b8151606090818167ffffffffffffffff81118015611dff57600080fd5b50604051908082528060200260200182016040528015611e3957816020015b611e266122b7565b815260200190600190039081611e1e5790505b50905060005b82811015611b3c57600454865160009173ffffffffffffffffffffffffffffffffffffffff169063065a80d890899085908110611e7857fe5b60200260200101516040518263ffffffff1660e01b8152600401611e9c9190612fcd565b60206040518083038186803b158015611eb457600080fd5b505afa158015611ec8573d6000803e3d6000fd5b505050506040513d601f19601f82011682018060405250810190611eec91906129dc565b90506000868381518110611efc57fe5b602002602001015173ffffffffffffffffffffffffffffffffffffffff166377c7b8fc6040518163ffffffff1660e01b815260040160206040518083038186803b158015611f4957600080fd5b505afa158015611f5d573d6000803e3d6000fd5b505050506040513d601f19601f82011682018060405250810190611f8191906129dc565b90506000600460009054906101000a900473ffffffffffffffffffffffffffffffffffffffff1673ffffffffffffffffffffffffffffffffffffffff1663f446c1d06040518163ffffffff1660e01b815260040160206040518083038186803b158015611fed57600080fd5b505afa158015612001573d6000803e3d6000fd5b505050506040513d601f19601f8201168201806040525081019061202591906129dc565b905060405180606001604052808481526020018381526020018281525085858151811061204e57fe5b6020026020010181905250505050806001019050611e3f565b61206f61215b565b6005546040517f8a72ea6a0000000000000000000000000000000000000000000000000000000081526000918291829173ffffffffffffffffffffffffffffffffffffffff1690638a72ea6a906120ca908890600401612fc4565b60c06040518083038186803b1580156120e257600080fd5b505afa1580156120f6573d6000803e3d6000fd5b505050506040513d601f19601f8201168201806040525081019061211a91906129f4565b50604080516080810182529a8b5273ffffffffffffffffffffffffffffffffffffffff90911660208b01528901939093526060880152509495945050505050565b604051806080016040528060008152602001600073ffffffffffffffffffffffffffffffffffffffff16815260200160008152602001600081525090565b604051806040016040528060008152602001600081525090565b6040518060600160405280600073ffffffffffffffffffffffffffffffffffffffff16815260200160608152602001600081525090565b6040518060a00160405280600073ffffffffffffffffffffffffffffffffffffffff1681526020016000151581526020016000815260200160008152602001600081525090565b6040518060800160405280600073ffffffffffffffffffffffffffffffffffffffff1681526020016060815260200160608152602001600081525090565b6040805160a08101825260008082526020820181905291810182905260608101829052608081019190915290565b604051806040016040528060608152602001606081525090565b60405180606001604052806000815260200160008152602001600081525090565b600082601f8301126122e8578081fd5b81356122fb6122f682613010565b612fe9565b81815291506020808301908481018184028601820187101561231c57600080fd5b60005b8481101561234457813561233281613079565b8452928201929082019060010161231f565b505050505092915050565b600082601f83011261235f578081fd5b813561236d6122f682613010565b81815291506020808301908481018184028601820187101561238e57600080fd5b60005b848110156123445781356123a481613079565b84529282019290820190600101612391565b600082601f8301126123c6578081fd5b81356123d46122f682613010565b8181529150602080830190848101818402860182018710156123f557600080fd5b6000805b8581101561242357823580600f0b8114612411578283fd5b855293830193918301916001016123f9565b50505050505092915050565b8035611b4181613079565b60006020828403121561244b578081fd5b815161245681613079565b9392505050565b6000806040838503121561246f578081fd5b823561247a81613079565b9150602083013561248a81613079565b809150509250929050565b600060208083850312156124a7578182fd5b825167ffffffffffffffff8111156124bd578283fd5b80840185601f8201126124ce578384fd5b805191506124de6122f683613010565b82815283810190828501858502840186018910156124fa578687fd5b8693505b8484101561252557805161251181613079565b8352600193909301929185019185016124fe565b50979650505050505050565b60008060408385031215612543578182fd5b823567ffffffffffffffff8082111561255a578384fd5b612566868387016122d8565b9350602085013591508082111561257b578283fd5b50612588858286016122d8565b9150509250929050565b600060208083850312156125a4578182fd5b823567ffffffffffffffff8111156125ba578283fd5b80840185601f8201126125cb578384fd5b803591506125db6122f683613010565b82815283810190828501858502840186018910156125f7578687fd5b8693505b8484101561252557803561260e81613079565b8352600193909301929185019185016125fb565b600060208284031215612633578081fd5b813567ffffffffffffffff811115612649578182fd5b6126558482850161234f565b949350505050565b6000806040838503121561266f578182fd5b823567ffffffffffffffff80821115612686578384fd5b6126928683870161234f565b93506020915081850135818111156126a8578384fd5b85019050601f810186136126ba578283fd5b80356126c86122f682613010565b81815283810190838501858402850186018a10156126e4578687fd5b8694505b8385101561270e576126fa8a8261242f565b8352600194909401939185019185016126e8565b5080955050505050509250929050565b60006020808385031215612730578182fd5b823567ffffffffffffffff811115612746578283fd5b80840185601f820112612757578384fd5b803591506127676122f683613010565b8281528381019082850185850284018601891015612783578687fd5b8693505b8484101561252557803561279a81613079565b835260019390930192918501918501612787565b600080604083850312156127c0578182fd5b823567ffffffffffffffff8111156127d6578283fd5b6127e2858286016123b6565b925050602083013561248a81613079565b60008060408385031215612805578182fd5b823567ffffffffffffffff8082111561281c578384fd5b612828868387016123b6565b935060209150818501358181111561283e578384fd5b85019050601f81018613612850578283fd5b803561285e6122f682613010565b81815283810190838501858402850186018a101561287a578687fd5b8694505b8385101561270e57803561289181613079565b83526001949094019391850191850161287e565b6000602082840312156128b6578081fd5b81516124568161309e565b6000602082840312156128d2578081fd5b815167ffffffffffffffff808211156128e9578283fd5b81840185601f8201126128fa578384fd5b805192508183111561290a578384fd5b61293b60207fffffffffffffffffffffffffffffffffffffffffffffffffffffffffffffffe0601f86011601612fe9565b9150828252856020848301011115612951578384fd5b611b3c836020840160208401613049565b600060a08284031215612973578081fd5b61297d60a0612fe9565b82518152602083015163ffffffff81168114612997578283fd5b602082015260408301516129aa8161309e565b604082015260608301516129bd8161309e565b606082015260808301516129d08161309e565b60808201529392505050565b6000602082840312156129ed578081fd5b5051919050565b60008060008060008060c08789031215612a0c578182fd5b865195506020870151612a1e81613079565b604088015160608901519196509450612a3681613079565b6080880151909350612a4781613079565b60a088015190925067ffffffffffffffff81168114612a64578182fd5b809150509295509295509295565b600060208284031215612a83578081fd5b815163ffffffff81168114612456578182fd5b6000815180845260208085019450808401835b83811015612afb578151805188528381015173ffffffffffffffffffffffffffffffffffffffff1684890152604080820151908901526060908101519088015260809096019590820190600101612aa9565b509495945050505050565b60008151808452612b1e816020860160208601613049565b601f017fffffffffffffffffffffffffffffffffffffffffffffffffffffffffffffffe0169290920160200192915050565b80518252602090810151910152565b63ffffffff169052565b73ffffffffffffffffffffffffffffffffffffffff91909116815260200190565b73ffffffffffffffffffffffffffffffffffffffff92831681529116602082015260400190565b600060408252612bc46040830185612a96565b8281036020840152612bd68185612a96565b95945050505050565b60208082528251828201819052600091906040908185019080840286018301878501865b83811015612cdd578883037fffffffffffffffffffffffffffffffffffffffffffffffffffffffffffffffc00185528151805173ffffffffffffffffffffffffffffffffffffffff168452878101516060898601819052815181870181905290916080918c9183890191908d015b81841015612cbc578051612c858151613030565b8452808f015115158f8501528d8101518e8501528681015187850152850151858401526001939093019260a0909201918d01612c71565b5050938a0151968a0196909652505094870194925090860190600101612c03565b509098975050505050505050565b602080825282518282018190526000919060409081850190868401855b82811015612d6457815163ffffffff815116855286810151612d2c88870182612b5f565b5085810151612d3d87870182612b5f565b50606081810151908601526080908101519085015260a09093019290850190600101612d08565b5091979650505050505050565b602080825282518282018190526000919060409081850190868401855b82811015612d6457612da1848351612b50565b9284019290850190600101612d8e565b602080825282518282018190526000919060409081850190868401855b82811015612d645781518051855286810151878601528501518585015260609093019290850190600101612dce565b60208082528251828201819052600091906040908185019080840286018301878501865b83811015612cdd577fffffffffffffffffffffffffffffffffffffffffffffffffffffffffffffffc089840301855281518051878552612e6388860182612a96565b8983015191508581038a870152612e7a8183612a96565b978a0197955050509187019150600101612e21565b60208082528251828201819052600091906040908185019080840286018301878501865b83811015612cdd577fffffffffffffffffffffffffffffffffffffffffffffffffffffffffffffffc089840301855281516080612ef08251613030565b855288820151818a870152612f0782870182612b06565b8984015192508681038a880152612f1e8184612b06565b6060948501519790940196909652505094870194925090860190600101612eb3565b602080825282518282018190526000919060409081850190868401855b82811015612d6457612f70848351612b50565b9284019290850190600101612f5d565b6020808252825182820181905260009190848201906040850190845b81811015612fb857835183529284019291840191600101612f9c565b50909695505050505050565b90815260200190565b600f9190910b815260200190565b60408101611b418284612b50565b60405181810167ffffffffffffffff8111828210171561300857600080fd5b604052919050565b600067ffffffffffffffff821115613026578081fd5b5060209081020190565b73ffffffffffffffffffffffffffffffffffffffff1690565b60005b8381101561306457818101518382015260200161304c565b83811115613073576000848401525b50505050565b73ffffffffffffffffffffffffffffffffffffffff8116811461309b57600080fd5b50565b801515811461309b57600080fdfea264697066735822122065f570cbd8dc694357b1d48bc5b2f5ab69c94debb24adbaae378437c6550963164736f6c63430006090033",
  "source": "pragma solidity ^0.6.0;\npragma experimental ABIEncoderV2;\n\ninterface IERC20Token {\n\tfunction balanceOf(address) external pure returns (uint256);\n}\n\ninterface UniswapFactory {\n    function getExchange(IERC20Token) external pure returns (address);\n}\n\ninterface BancorConverter {\n    struct tokenInfo {\n        uint256 virtualBalance;\n        uint32 ratio;\n        bool isVirtualBalanceEnabled;\n        bool isSaleEnabled;\n        bool isSet;\n    }\n\n    function connectors(IERC20Token) external pure returns (tokenInfo memory);\n    function conversionFee() external pure returns (uint32);\n}\n\ninterface BalancerPool {\n    struct balancerToken {\n        address token;\n        bool isBound;   // is token bound to pool\n        uint index;\n        uint denorm;  // denormalized weight\n        uint balance;\n    }\n    struct balancerData {\n        address pool;\n        balancerToken[] tokens;\n        uint fee;\n    }\n\n    function isPublicSwap() external view returns (bool);\n    function isFinalized() external view returns (bool);\n    function isBound(address t) external view returns (bool);\n    function getFinalTokens() external view returns (address[] memory tokens);\n    function getDenormalizedWeight(address token) external view returns (uint);\n    function getBalance(address token) external view returns (uint);\n    function getSwapFee() external view returns (uint);\n}\n\ninterface SynthetixDepot {\n    function totalSellableDeposits() external pure returns (uint256);\n}\n\ninterface SynthetixRates {\n    function rateForCurrency(bytes32) external pure returns (uint256);\n}\n\ninterface CurveExchange {\n    function balances(int128) external pure returns (uint256);\n    function A() external pure returns (uint256);\n}\n\ninterface BalancerExchange {\n    function pools(int128) external pure returns (uint256);\n}\n\ninterface yToken {\n    function getPricePerFullShare() external pure returns (uint256);\n}\n\ninterface MatchingMarket {\n    function offers(uint256 id) external view returns(uint256 pay_amt, address pay_gem, uint256 buy_amt, address buy_gem, address owner, uint64 timestamp);\n    function getOfferCount(address base, address quote) external view returns(uint256 count);\n    function getBestOffer(address base, address quote) external view returns(uint256 id);\n    function getWorseOffer(uint256 id) external view returns(uint256 worseOfferId);\n}\n\ninterface cToken {\n    function exchangeRateStored() external pure returns (uint256);\n}\n\ninterface OptionsFactory {\n    function getNumberOfOptionsContracts() external pure returns (uint256);\n    function optionsContracts(uint256) external pure returns(address);\n}\n\ninterface oToken {\n    function name() external pure returns (string memory);\n    function symbol() external pure returns (string memory);\n    function expiry() external pure returns (uint256);\n}\n\ncontract Oracle {\n    struct uniswapData {\n        uint256 tokenBalance;\n        uint256 ethBalance;\n    }\n    UniswapFactory public uniFactory = UniswapFactory(0xc0a47dFe034B400B47bDaD5FecDa2621de6c4d95);\n    function getUniswapData(IERC20Token[] memory tokens) public view returns (uniswapData[] memory) {\n        uint256 length = tokens.length;\n\t\tuniswapData[] memory data = new uniswapData[](length);\n\t\tfor (uint256 i = 0; i < length; ++i) {\n            IERC20Token token = tokens[i];\n            address exchange = uniFactory.getExchange(token);\n\t\t\tuint256 tokenBalance = token.balanceOf(exchange);\n\t\t\tuint256 ethBalance = exchange.balance;\n            data[i] = uniswapData({\n                tokenBalance: tokenBalance,\n                ethBalance: ethBalance\n            });\n\t\t}\n\t\treturn data;\n\t}\n\n    struct bancorData {\n        uint32 eWeight;\n        uint32 tWeight;\n        uint32 tFee;\n        uint256 tBalance;\n        uint256 eBalance;\n    }\n    IERC20Token public BNT = IERC20Token(0x1F573D6Fb3F13d689FF844B4cE37794d79a7FF1C);\n    function getBancorData(IERC20Token[] memory tokens, BancorConverter[] memory converters) public view returns (bancorData[] memory) {\n        uint256 length = tokens.length;\n        bancorData[] memory data = new bancorData[](length);\n        for (uint256 i = 0; i < length; ++i) {\n            BancorConverter converter = converters[i];\n            BancorConverter.tokenInfo memory info = converter.connectors(tokens[i]);\n            uint32 eWeight = info.ratio;\n            uint32 tWeight = 1000000 - eWeight;\n            uint32 tFee = converter.conversionFee();\n            uint256 tBalance = tokens[i].balanceOf(address(converter));\n            uint256 eBalance = BNT.balanceOf(address(converter));\n            data[i] = bancorData({\n                eWeight: eWeight,\n                tWeight: tWeight,\n                tFee: tFee,\n                tBalance: tBalance,\n                eBalance: eBalance\n            });\n        }\n        return data;\n    }\n\n\n    function getBalancerData(BalancerPool[] memory pools) public view returns (BalancerPool.balancerData[] memory) {\n        uint256 length = pools.length;\n        BalancerPool.balancerData[] memory data = new BalancerPool.balancerData[](length);\n        for (uint256 i = 0; i < length; ++i) {\n            address pool = address(pools[i]);\n            BalancerPool BP = BalancerPool(pool);\n            bool isPublicSwap = BP.isPublicSwap();\n            bool isFinalized = BP.isFinalized();\n            // Token allows for public swap and pool creation is finalized\n            if (isPublicSwap && isFinalized) {\n                address[] memory balancerTokens = BP.getFinalTokens();\n                BalancerPool.balancerToken[] memory tokenData = new BalancerPool.balancerToken[](balancerTokens.length);\n                for (uint256 j = 0; j < balancerTokens.length; ++j) {\n                    address token = balancerTokens[j];\n                    bool isBound = BP.isBound(token);   // is token bound to pool\n                    uint denorm = BP.getDenormalizedWeight(token);  // denormalized weight\n                    uint balance = BP.getBalance(token);\n                    tokenData[j] = BalancerPool.balancerToken({\n                        token: token,\n                        isBound: isBound,\n                        index: j,\n                        denorm: denorm,\n                        balance: balance\n                    });\n                }\n                uint fee = BP.getSwapFee();\n                data[i] = BalancerPool.balancerData({\n                    pool: pool,\n                    tokens: tokenData,\n                    fee: fee\n                });\n\n            }\n        }\n        return data;\n    }\n\n    struct synthetixData {\n        uint256 rate;\n        uint256 balance;\n    }\n    SynthetixDepot public Depot = SynthetixDepot(0xE1f64079aDa6Ef07b03982Ca34f1dD7152AA3b86);\n    SynthetixRates public Rates = SynthetixRates(0x9D7F70AF5DF5D5CC79780032d47a34615D1F1d77);\n    function getSynthetixData() public view returns (synthetixData memory) {\n        bytes32 ethKey = 0x4554480000000000000000000000000000000000000000000000000000000000;\n        uint256 rate = Rates.rateForCurrency(ethKey);\n        uint256 balance = Depot.totalSellableDeposits();\n        return synthetixData({\n            rate: rate,\n            balance: balance\n        });\n    }\n\n    struct curveData {\n        uint256 balance;\n        uint256 pricePerShare;\n        uint256 A;\n    }\n    CurveExchange public Exchange = CurveExchange(0x45F783CCE6B7FF23B2ab2D70e416cdb7D6055f51);\n    function getCurveData(int128[] memory ids, yToken[] memory tokens) public view returns (curveData[] memory) {\n        uint256 length = ids.length;\n        curveData[] memory data = new curveData[](length);\n        for (uint256 i = 0; i < length; ++i) {\n            uint256 balance = Exchange.balances(ids[i]);\n            uint256 pricePerShare = tokens[i].getPricePerFullShare();\n            uint256 A = Exchange.A();\n            data[i] = curveData({\n                balance: balance,\n                pricePerShare: pricePerShare,\n                A: A\n            });\n        }\n        return data;\n    }\n\n    struct curveCTokenData {\n        uint256 balance;\n        uint256 A;\n    }\n    function getCurveCData(int128[] memory ids, address exchange) public view returns (curveCTokenData[] memory) {\n        CurveExchange tokenExchange = CurveExchange(exchange);\n        uint256 length = ids.length;\n        curveCTokenData[] memory data = new curveCTokenData[](length);\n        for (uint256 i = 0; i < length; ++i) {\n            uint256 balance = tokenExchange.balances(ids[i]);\n            uint256 A = tokenExchange.A();\n            data[i] = curveCTokenData({\n                balance: balance,\n                A: A\n            });\n        }\n        return data;\n    }\n\n    struct Offer {\n        uint256 id;\n        address maker;\n        uint256 makerAmount;\n        uint256 takerAmount;\n    }\n\n    struct oasisData {\n        Offer[] bids;\n        Offer[] asks;\n    }\n    MatchingMarket oasisMarket = MatchingMarket(0x794e6e91555438aFc3ccF1c5076A74F42133d08D);\n\n    function getOasisData(address[] memory bases, address[] memory quotes) public view returns (oasisData[] memory) {\n        uint256 length = bases.length;\n        oasisData[] memory data = new oasisData[](length);\n        for (uint256 i = 0; i < length; ++i) {\n            (Offer[] memory bids, Offer[] memory asks) = getOrderBook(bases[i], quotes[i]);\n            data[i] = oasisData({\n                bids: bids,\n                asks: asks\n            });\n        }\n        return data;\n    }\n\n    function getOrderBook(address base, address quote) public view returns(Offer[] memory bids, Offer[] memory asks) {\n        uint256 offerId;\n        uint256 bidCount = oasisMarket.getOfferCount(quote, base);\n        if (bidCount == 0) {\n            bids = new Offer[](1);\n            bids[0] = Offer({\n                id: 0,\n                maker: 0x0000000000000000000000000000000000000000,\n                makerAmount: 0,\n                takerAmount: 0\n            });\n        } else {\n            bids = new Offer[](bidCount);\n            offerId = oasisMarket.getBestOffer(quote, base);\n            bids[0] = getOffer(offerId);\n            for (uint256 i = 1; i < bidCount; i++) {\n                offerId = oasisMarket.getWorseOffer(offerId);\n                bids[i] = getOffer(offerId);\n            }\n        }\n\n        uint256 askCount = oasisMarket.getOfferCount(base, quote);\n        if (askCount == 0) {\n            asks = new Offer[](1);\n            asks[0] = Offer({\n                id: 0,\n                maker: 0x0000000000000000000000000000000000000000,\n                makerAmount: 0,\n                takerAmount: 0\n            });\n        } else {\n            asks = new Offer[](askCount);\n            offerId = oasisMarket.getBestOffer(base, quote);\n            asks[0] = getOffer(offerId);\n            for (uint256 i = 1; i < askCount; i++) {\n                offerId = oasisMarket.getWorseOffer(offerId);\n                asks[i] = getOffer(offerId);\n            }\n        }\n    }\n\n        \n    function getOffer(uint256 id) private view returns(Offer memory offer) {\n        (uint256 pay_amt, , uint256 buy_amt, , address owner, ) = oasisMarket.offers(id);\n        offer = Offer(id, owner, pay_amt, buy_amt);\n    }\n\n    function min(uint256 a, uint256 b) internal pure returns (uint256) {\n        return a < b ? a : b;\n    }\n\n    function getCompoundData(cToken[] memory tokens) public view returns (uint256[] memory) {\n        uint256 length = tokens.length;\n\t\tuint256[] memory data = new uint256[](length);\n\t\tfor (uint256 i = 0; i < length; ++i) {\n\t\t\tuint256 rate = tokens[i].exchangeRateStored();\n            data[i] = rate;\n\t\t}\n\t\treturn data;\n    }\n\n    struct opynData {\n        address oTokenAddress;\n        string name;\n        string symbol;\n        uint256 expiry;\n    }\n\n    OptionsFactory public opynFactory = OptionsFactory(0xcC5d905b9c2c8C9329Eb4e25dc086369D6C7777C);\n    function getOpynData() public view returns (opynData[] memory) {\n        uint256 numOTokens = opynFactory.getNumberOfOptionsContracts();\n        opynData[] memory data = new opynData[](numOTokens);\n\n        for (uint256 i = 0; i < numOTokens; i++) {\n            address token = opynFactory.optionsContracts(i);\n            oToken o = oToken(token);\n            uint256 expiry = o.expiry();\n            if (now < expiry) {\n                string memory name = o.name();\n                string memory symbol = o.symbol();\n\n                data[i] = opynData({\n                    oTokenAddress: token,\n                    name: name,\n                    symbol: symbol,\n                    expiry: expiry\n                });\n            }\n        }\n\n        return data;\n    }\n}",
  "sourcePath": "/Users/nathanieloden/Documents/progrimz/ConcourseOpen/oracles/contracts/Oracle.sol",
  "compiler": {
    "name": "solc",
    "version": "0.6.9+commit.3e3065ac.Emscripten.clang"
  },
  "schemaVersion": "3.0.23",
  "updatedAt": "2020-06-05T15:49:35.417Z",
  "networkType": "ethereum",
  "devdoc": {
    "methods": {}
  },
  "userdoc": {
    "methods": {}
  }
}