{
  "contractName": "Oracle",
  "abi": [
    {
      "inputs": [],
      "name": "BNT",
      "outputs": [
        {
          "internalType": "contract IERC20Token",
          "name": "",
          "type": "address"
        }
      ],
      "stateMutability": "view",
      "type": "function",
      "constant": true
    },
    {
      "inputs": [],
      "name": "Depot",
      "outputs": [
        {
          "internalType": "contract SynthetixDepot",
          "name": "",
          "type": "address"
        }
      ],
      "stateMutability": "view",
      "type": "function",
      "constant": true
    },
    {
      "inputs": [],
      "name": "Exchange",
      "outputs": [
        {
          "internalType": "contract CurveExchange",
          "name": "",
          "type": "address"
        }
      ],
      "stateMutability": "view",
      "type": "function",
      "constant": true
    },
    {
      "inputs": [],
      "name": "Rates",
      "outputs": [
        {
          "internalType": "contract SynthetixRates",
          "name": "",
          "type": "address"
        }
      ],
      "stateMutability": "view",
      "type": "function",
      "constant": true
    },
    {
      "inputs": [],
      "name": "opynFactory",
      "outputs": [
        {
          "internalType": "contract OptionsFactory",
          "name": "",
          "type": "address"
        }
      ],
      "stateMutability": "view",
      "type": "function",
      "constant": true
    },
    {
      "inputs": [],
      "name": "uniFactory",
      "outputs": [
        {
          "internalType": "contract UniswapFactory",
          "name": "",
          "type": "address"
        }
      ],
      "stateMutability": "view",
      "type": "function",
      "constant": true
    },
    {
      "inputs": [
        {
          "internalType": "contract IERC20Token[]",
          "name": "tokens",
          "type": "address[]"
        }
      ],
      "name": "getUniswapData",
      "outputs": [
        {
          "components": [
            {
              "internalType": "uint256",
              "name": "tokenBalance",
              "type": "uint256"
            },
            {
              "internalType": "uint256",
              "name": "ethBalance",
              "type": "uint256"
            }
          ],
          "internalType": "struct Oracle.uniswapData[]",
          "name": "",
          "type": "tuple[]"
        }
      ],
      "stateMutability": "view",
      "type": "function",
      "constant": true
    },
    {
      "inputs": [
        {
          "internalType": "contract UniswapV2Pair[]",
          "name": "pairs",
          "type": "address[]"
        }
      ],
      "name": "getUniswapV2Data",
      "outputs": [
        {
          "components": [
            {
              "components": [
                {
                  "internalType": "address",
                  "name": "token",
                  "type": "address"
                },
                {
                  "internalType": "uint256",
                  "name": "balance",
                  "type": "uint256"
                }
              ],
              "internalType": "struct Oracle.uniswapV2TokenBalance",
              "name": "token0",
              "type": "tuple"
            },
            {
              "components": [
                {
                  "internalType": "address",
                  "name": "token",
                  "type": "address"
                },
                {
                  "internalType": "uint256",
                  "name": "balance",
                  "type": "uint256"
                }
              ],
              "internalType": "struct Oracle.uniswapV2TokenBalance",
              "name": "token1",
              "type": "tuple"
            }
          ],
          "internalType": "struct Oracle.uniswapV2Data[]",
          "name": "",
          "type": "tuple[]"
        }
      ],
      "stateMutability": "view",
      "type": "function",
      "constant": true
    },
    {
      "inputs": [
        {
          "internalType": "contract IERC20Token[]",
          "name": "tokens",
          "type": "address[]"
        },
        {
          "internalType": "contract BancorConverter[]",
          "name": "converters",
          "type": "address[]"
        }
      ],
      "name": "getBancorData",
      "outputs": [
        {
          "components": [
            {
              "internalType": "uint32",
              "name": "eWeight",
              "type": "uint32"
            },
            {
              "internalType": "uint32",
              "name": "tWeight",
              "type": "uint32"
            },
            {
              "internalType": "uint32",
              "name": "tFee",
              "type": "uint32"
            },
            {
              "internalType": "uint256",
              "name": "tBalance",
              "type": "uint256"
            },
            {
              "internalType": "uint256",
              "name": "eBalance",
              "type": "uint256"
            }
          ],
          "internalType": "struct Oracle.bancorData[]",
          "name": "",
          "type": "tuple[]"
        }
      ],
      "stateMutability": "view",
      "type": "function",
      "constant": true
    },
    {
      "inputs": [
        {
          "internalType": "contract BalancerPool[]",
          "name": "pools",
          "type": "address[]"
        }
      ],
      "name": "getBalancerData",
      "outputs": [
        {
          "components": [
            {
              "internalType": "address",
              "name": "pool",
              "type": "address"
            },
            {
              "components": [
                {
                  "internalType": "address",
                  "name": "token",
                  "type": "address"
                },
                {
                  "internalType": "bool",
                  "name": "isBound",
                  "type": "bool"
                },
                {
                  "internalType": "uint256",
                  "name": "index",
                  "type": "uint256"
                },
                {
                  "internalType": "uint256",
                  "name": "denorm",
                  "type": "uint256"
                },
                {
                  "internalType": "uint256",
                  "name": "balance",
                  "type": "uint256"
                }
              ],
              "internalType": "struct BalancerPool.balancerToken[]",
              "name": "tokens",
              "type": "tuple[]"
            },
            {
              "internalType": "uint256",
              "name": "fee",
              "type": "uint256"
            }
          ],
          "internalType": "struct BalancerPool.balancerData[]",
          "name": "",
          "type": "tuple[]"
        }
      ],
      "stateMutability": "view",
      "type": "function",
      "constant": true
    },
    {
      "inputs": [],
      "name": "getSynthetixData",
      "outputs": [
        {
          "components": [
            {
              "internalType": "uint256",
              "name": "rate",
              "type": "uint256"
            },
            {
              "internalType": "uint256",
              "name": "balance",
              "type": "uint256"
            }
          ],
          "internalType": "struct Oracle.synthetixData",
          "name": "",
          "type": "tuple"
        }
      ],
      "stateMutability": "view",
      "type": "function",
      "constant": true
    },
    {
      "inputs": [
        {
          "internalType": "int128[]",
          "name": "ids",
          "type": "int128[]"
        },
        {
          "internalType": "contract yToken[]",
          "name": "tokens",
          "type": "address[]"
        }
      ],
      "name": "getCurveData",
      "outputs": [
        {
          "components": [
            {
              "internalType": "uint256",
              "name": "balance",
              "type": "uint256"
            },
            {
              "internalType": "uint256",
              "name": "pricePerShare",
              "type": "uint256"
            },
            {
              "internalType": "uint256",
              "name": "A",
              "type": "uint256"
            }
          ],
          "internalType": "struct Oracle.curveData[]",
          "name": "",
          "type": "tuple[]"
        }
      ],
      "stateMutability": "view",
      "type": "function",
      "constant": true
    },
    {
      "inputs": [
        {
          "internalType": "int128[]",
          "name": "ids",
          "type": "int128[]"
        },
        {
          "internalType": "address",
          "name": "exchange",
          "type": "address"
        }
      ],
      "name": "getCurveCData",
      "outputs": [
        {
          "components": [
            {
              "internalType": "uint256",
              "name": "balance",
              "type": "uint256"
            },
            {
              "internalType": "uint256",
              "name": "A",
              "type": "uint256"
            }
          ],
          "internalType": "struct Oracle.curveCTokenData[]",
          "name": "",
          "type": "tuple[]"
        }
      ],
      "stateMutability": "view",
      "type": "function",
      "constant": true
    },
    {
      "inputs": [
        {
          "internalType": "address[]",
          "name": "bases",
          "type": "address[]"
        },
        {
          "internalType": "address[]",
          "name": "quotes",
          "type": "address[]"
        }
      ],
      "name": "getOasisData",
      "outputs": [
        {
          "components": [
            {
              "components": [
                {
                  "internalType": "uint256",
                  "name": "id",
                  "type": "uint256"
                },
                {
                  "internalType": "address",
                  "name": "maker",
                  "type": "address"
                },
                {
                  "internalType": "uint256",
                  "name": "makerAmount",
                  "type": "uint256"
                },
                {
                  "internalType": "uint256",
                  "name": "takerAmount",
                  "type": "uint256"
                }
              ],
              "internalType": "struct Oracle.Offer[]",
              "name": "bids",
              "type": "tuple[]"
            },
            {
              "components": [
                {
                  "internalType": "uint256",
                  "name": "id",
                  "type": "uint256"
                },
                {
                  "internalType": "address",
                  "name": "maker",
                  "type": "address"
                },
                {
                  "internalType": "uint256",
                  "name": "makerAmount",
                  "type": "uint256"
                },
                {
                  "internalType": "uint256",
                  "name": "takerAmount",
                  "type": "uint256"
                }
              ],
              "internalType": "struct Oracle.Offer[]",
              "name": "asks",
              "type": "tuple[]"
            }
          ],
          "internalType": "struct Oracle.oasisData[]",
          "name": "",
          "type": "tuple[]"
        }
      ],
      "stateMutability": "view",
      "type": "function",
      "constant": true
    },
    {
      "inputs": [
        {
          "internalType": "address",
          "name": "base",
          "type": "address"
        },
        {
          "internalType": "address",
          "name": "quote",
          "type": "address"
        }
      ],
      "name": "getOrderBook",
      "outputs": [
        {
          "components": [
            {
              "internalType": "uint256",
              "name": "id",
              "type": "uint256"
            },
            {
              "internalType": "address",
              "name": "maker",
              "type": "address"
            },
            {
              "internalType": "uint256",
              "name": "makerAmount",
              "type": "uint256"
            },
            {
              "internalType": "uint256",
              "name": "takerAmount",
              "type": "uint256"
            }
          ],
          "internalType": "struct Oracle.Offer[]",
          "name": "bids",
          "type": "tuple[]"
        },
        {
          "components": [
            {
              "internalType": "uint256",
              "name": "id",
              "type": "uint256"
            },
            {
              "internalType": "address",
              "name": "maker",
              "type": "address"
            },
            {
              "internalType": "uint256",
              "name": "makerAmount",
              "type": "uint256"
            },
            {
              "internalType": "uint256",
              "name": "takerAmount",
              "type": "uint256"
            }
          ],
          "internalType": "struct Oracle.Offer[]",
          "name": "asks",
          "type": "tuple[]"
        }
      ],
      "stateMutability": "view",
      "type": "function",
      "constant": true
    },
    {
      "inputs": [
        {
          "internalType": "contract cToken[]",
          "name": "tokens",
          "type": "address[]"
        }
      ],
      "name": "getCompoundData",
      "outputs": [
        {
          "internalType": "uint256[]",
          "name": "",
          "type": "uint256[]"
        }
      ],
      "stateMutability": "view",
      "type": "function",
      "constant": true
    },
    {
      "inputs": [],
      "name": "getOpynData",
      "outputs": [
        {
          "components": [
            {
              "internalType": "address",
              "name": "oTokenAddress",
              "type": "address"
            },
            {
              "internalType": "string",
              "name": "name",
              "type": "string"
            },
            {
              "internalType": "string",
              "name": "symbol",
              "type": "string"
            },
            {
              "internalType": "uint256",
              "name": "expiry",
              "type": "uint256"
            },
            {
              "internalType": "uint256",
              "name": "decimals",
              "type": "uint256"
            }
          ],
          "internalType": "struct Oracle.opynData[]",
          "name": "",
          "type": "tuple[]"
        }
      ],
      "stateMutability": "view",
      "type": "function",
      "constant": true
    }
  ],
  "bytecode": "0x6080604052600080546001600160a01b031990811673c0a47dfe034b400b47bdad5fecda2621de6c4d9517909155600180548216731f573d6fb3f13d689ff844b4ce37794d79a7ff1c17905560028054821673e1f64079ada6ef07b03982ca34f1dd7152aa3b86179055600380548216739d7f70af5df5d5cc79780032d47a34615d1f1d771790556004805482167345f783cce6b7ff23b2ab2d70e416cdb7d6055f5117905560058054821673794e6e91555438afc3ccf1c5076a74f42133d08d1790556006805490911673cc5d905b9c2c8c9329eb4e25dc086369d6c7777c1790553480156100ee57600080fd5b50613651806100fe6000396000f3fe608060405234801561001057600080fd5b506004361061011b5760003560e01c806389b4a36f116100b2578063a03394d211610081578063c93fc09d11610066578063c93fc09d14610251578063db5ac06b14610271578063ecd84b9a146102915761011b565b8063a03394d214610229578063ac333342146102315761011b565b806389b4a36f146101e457806389c51200146101ec57806399731b6a146101f45780639e83a6c2146102145761011b565b80632e44bc0d116100ee5780632e44bc0d1461019f5780634191e2fd146101b45780634e60860e146101d457806376771d4b146101dc5761011b565b806307e3a36c146101205780630a77b07814610149578063203d39ff1461015e578063294bea9f1461017f575b600080fd5b61013361012e366004612b80565b6102b1565b60405161014091906134c1565b60405180910390f35b6101516103c4565b604051610140919061307c565b61017161016c366004612830565b6103e0565b6040516101409291906130c4565b61019261018d3660046129f5565b610a5d565b604051610140919061342a565b6101a7610c6d565b604051610140919061351c565b6101c76101c2366004612965565b610dfd565b60405161014091906130f2565b61015161130f565b61015161132b565b610151611347565b610151611363565b610207610202366004612af1565b61137f565b604051610140919061346a565b61021c61163f565b6040516101409190613362565b610151611ab2565b61024461023f366004612a30565b611ace565b60405161014091906131cb565b61026461025f366004612c10565b611eb7565b6040516101409190613244565b61028461027f366004612904565b612080565b60405161014091906132d0565b6102a461029f366004612c55565b612152565b6040516101409190613284565b8051606090818167ffffffffffffffff811180156102ce57600080fd5b506040519080825280602002602001820160405280156102f8578160200160208202803683370190505b50905060005b828110156103bc57600085828151811061031457fe5b602002602001015173ffffffffffffffffffffffffffffffffffffffff1663182df0f56040518163ffffffff1660e01b815260040160206040518083038186803b15801561036157600080fd5b505afa158015610375573d6000803e3d6000fd5b505050506040513d601f19601f820116820180604052508101906103999190612e8a565b9050808383815181106103a857fe5b6020908102919091010152506001016102fe565b509392505050565b60045473ffffffffffffffffffffffffffffffffffffffff1681565b6005546040517f7ca9429a0000000000000000000000000000000000000000000000000000000081526060918291600091829173ffffffffffffffffffffffffffffffffffffffff90911690637ca9429a906104429088908a9060040161309d565b60206040518083038186803b15801561045a57600080fd5b505afa15801561046e573d6000803e3d6000fd5b505050506040513d601f19601f820116820180604052508101906104929190612e8a565b9050806105235760408051600180825281830190925290816020015b6104b66124cb565b8152602001906001900390816104ae579050509350604051806080016040528060008152602001600073ffffffffffffffffffffffffffffffffffffffff1681526020016000815260200160008152508460008151811061051357fe5b602002602001018190525061071e565b8067ffffffffffffffff8111801561053a57600080fd5b5060405190808252806020026020018201604052801561057457816020015b6105616124cb565b8152602001906001900390816105595790505b506005546040517f0374fc6f00000000000000000000000000000000000000000000000000000000815291955073ffffffffffffffffffffffffffffffffffffffff1690630374fc6f906105ce9088908a9060040161309d565b60206040518083038186803b1580156105e657600080fd5b505afa1580156105fa573d6000803e3d6000fd5b505050506040513d601f19601f8201168201806040525081019061061e9190612e8a565b9150610629826123d7565b8460008151811061063657fe5b602090810291909101015260015b8181101561071c576005546040517f943911bc00000000000000000000000000000000000000000000000000000000815273ffffffffffffffffffffffffffffffffffffffff9091169063943911bc906106a2908690600401613505565b60206040518083038186803b1580156106ba57600080fd5b505afa1580156106ce573d6000803e3d6000fd5b505050506040513d601f19601f820116820180604052508101906106f29190612e8a565b92506106fd836123d7565b85828151811061070957fe5b6020908102919091010152600101610644565b505b6005546040517f7ca9429a00000000000000000000000000000000000000000000000000000000815260009173ffffffffffffffffffffffffffffffffffffffff1690637ca9429a90610777908a908a9060040161309d565b60206040518083038186803b15801561078f57600080fd5b505afa1580156107a3573d6000803e3d6000fd5b505050506040513d601f19601f820116820180604052508101906107c79190612e8a565b9050806108585760408051600180825281830190925290816020015b6107eb6124cb565b8152602001906001900390816107e3579050509350604051806080016040528060008152602001600073ffffffffffffffffffffffffffffffffffffffff1681526020016000815260200160008152508460008151811061084857fe5b6020026020010181905250610a53565b8067ffffffffffffffff8111801561086f57600080fd5b506040519080825280602002602001820160405280156108a957816020015b6108966124cb565b81526020019060019003908161088e5790505b506005546040517f0374fc6f00000000000000000000000000000000000000000000000000000000815291955073ffffffffffffffffffffffffffffffffffffffff1690630374fc6f90610903908a908a9060040161309d565b60206040518083038186803b15801561091b57600080fd5b505afa15801561092f573d6000803e3d6000fd5b505050506040513d601f19601f820116820180604052508101906109539190612e8a565b925061095e836123d7565b8460008151811061096b57fe5b602090810291909101015260015b81811015610a51576005546040517f943911bc00000000000000000000000000000000000000000000000000000000815273ffffffffffffffffffffffffffffffffffffffff9091169063943911bc906109d7908790600401613505565b60206040518083038186803b1580156109ef57600080fd5b505afa158015610a03573d6000803e3d6000fd5b505050506040513d601f19601f82011682018060405250810190610a279190612e8a565b9350610a32846123d7565b858281518110610a3e57fe5b6020908102919091010152600101610979565b505b5050509250929050565b8051606090818167ffffffffffffffff81118015610a7a57600080fd5b50604051908082528060200260200182016040528015610ab457816020015b610aa1612509565b815260200190600190039081610a995790505b50905060005b828110156103bc576000858281518110610ad057fe5b6020908102919091010151600080546040517f06f2bf62000000000000000000000000000000000000000000000000000000008152929350909173ffffffffffffffffffffffffffffffffffffffff909116906306f2bf6290610b3790859060040161307c565b60206040518083038186803b158015610b4f57600080fd5b505afa158015610b63573d6000803e3d6000fd5b505050506040513d601f19601f82011682018060405250810190610b87919061280d565b905060008273ffffffffffffffffffffffffffffffffffffffff166370a08231836040518263ffffffff1660e01b8152600401610bc4919061307c565b60206040518083038186803b158015610bdc57600080fd5b505afa158015610bf0573d6000803e3d6000fd5b505050506040513d601f19601f82011682018060405250810190610c149190612e8a565b905060008273ffffffffffffffffffffffffffffffffffffffff16319050604051806040016040528083815260200182815250868681518110610c5357fe5b602002602001018190525050505050806001019050610aba565b610c75612509565b6003546040517fac82f6080000000000000000000000000000000000000000000000000000000081527f45544800000000000000000000000000000000000000000000000000000000009160009173ffffffffffffffffffffffffffffffffffffffff9091169063ac82f60890610cf0908590600401613505565b60206040518083038186803b158015610d0857600080fd5b505afa158015610d1c573d6000803e3d6000fd5b505050506040513d601f19601f82011682018060405250810190610d409190612e8a565b90506000600260009054906101000a900473ffffffffffffffffffffffffffffffffffffffff1673ffffffffffffffffffffffffffffffffffffffff16634d0387fb6040518163ffffffff1660e01b815260040160206040518083038186803b158015610dac57600080fd5b505afa158015610dc0573d6000803e3d6000fd5b505050506040513d601f19601f82011682018060405250810190610de49190612e8a565b6040805180820190915292835260208301525091505090565b8051606090818167ffffffffffffffff81118015610e1a57600080fd5b50604051908082528060200260200182016040528015610e5457816020015b610e41612523565b815260200190600190039081610e395790505b50905060005b828110156103bc576000858281518110610e7057fe5b60200260200101519050600081905060008173ffffffffffffffffffffffffffffffffffffffff1663fde924f76040518163ffffffff1660e01b815260040160206040518083038186803b158015610ec757600080fd5b505afa158015610edb573d6000803e3d6000fd5b505050506040513d601f19601f82011682018060405250810190610eff9190612d06565b905080156113015760608273ffffffffffffffffffffffffffffffffffffffff1663cc77828d6040518163ffffffff1660e01b815260040160006040518083038186803b158015610f4f57600080fd5b505afa158015610f63573d6000803e3d6000fd5b505050506040513d6000823e601f3d9081017fffffffffffffffffffffffffffffffffffffffffffffffffffffffffffffffe0168201604052610fa99190810190612868565b90506060815167ffffffffffffffff81118015610fc557600080fd5b50604051908082528060200260200182016040528015610fff57816020015b610fec61255a565b815260200190600190039081610fe45790505b50905060005b825181101561123257600083828151811061101c57fe5b6020026020010151905060008673ffffffffffffffffffffffffffffffffffffffff16632f37b624836040518263ffffffff1660e01b8152600401611061919061307c565b60206040518083038186803b15801561107957600080fd5b505afa15801561108d573d6000803e3d6000fd5b505050506040513d601f19601f820116820180604052508101906110b19190612d06565b905060008773ffffffffffffffffffffffffffffffffffffffff1663948d8ce6846040518263ffffffff1660e01b81526004016110ee919061307c565b60206040518083038186803b15801561110657600080fd5b505afa15801561111a573d6000803e3d6000fd5b505050506040513d601f19601f8201168201806040525081019061113e9190612e8a565b905060008873ffffffffffffffffffffffffffffffffffffffff1663f8b2cb4f856040518263ffffffff1660e01b815260040161117b919061307c565b60206040518083038186803b15801561119357600080fd5b505afa1580156111a7573d6000803e3d6000fd5b505050506040513d601f19601f820116820180604052508101906111cb9190612e8a565b90506040518060a001604052808573ffffffffffffffffffffffffffffffffffffffff16815260200184151581526020018681526020018381526020018281525086868151811061121857fe5b602002602001018190525050505050806001019050611005565b5060008473ffffffffffffffffffffffffffffffffffffffff1663d4cadf686040518163ffffffff1660e01b815260040160206040518083038186803b15801561127b57600080fd5b505afa15801561128f573d6000803e3d6000fd5b505050506040513d601f19601f820116820180604052508101906112b39190612e8a565b905060405180606001604052808773ffffffffffffffffffffffffffffffffffffffff168152602001838152602001828152508888815181106112f257fe5b60200260200101819052505050505b505050806001019050610e5a565b60015473ffffffffffffffffffffffffffffffffffffffff1681565b60005473ffffffffffffffffffffffffffffffffffffffff1681565b60025473ffffffffffffffffffffffffffffffffffffffff1681565b60065473ffffffffffffffffffffffffffffffffffffffff1681565b8051606090818167ffffffffffffffff8111801561139c57600080fd5b506040519080825280602002602001820160405280156113d657816020015b6113c36125a1565b8152602001906001900390816113bb5790505b50905060005b828110156103bc5760008582815181106113f257fe5b6020026020010151905060008173ffffffffffffffffffffffffffffffffffffffff16630dfe16816040518163ffffffff1660e01b815260040160206040518083038186803b15801561144457600080fd5b505afa158015611458573d6000803e3d6000fd5b505050506040513d601f19601f8201168201806040525081019061147c919061280d565b905060008273ffffffffffffffffffffffffffffffffffffffff1663d21220a76040518163ffffffff1660e01b815260040160206040518083038186803b1580156114c657600080fd5b505afa1580156114da573d6000803e3d6000fd5b505050506040513d601f19601f820116820180604052508101906114fe919061280d565b90506115086125c6565b8373ffffffffffffffffffffffffffffffffffffffff16630902f1ac6040518163ffffffff1660e01b815260040160606040518083038186803b15801561154e57600080fd5b505afa158015611562573d6000803e3d6000fd5b505050506040513d601f19601f820116820180604052508101906115869190612dc3565b9050604051806040016040528060405180604001604052808673ffffffffffffffffffffffffffffffffffffffff16815260200184600001516dffffffffffffffffffffffffffff16815250815260200160405180604001604052808573ffffffffffffffffffffffffffffffffffffffff16815260200184602001516dffffffffffffffffffffffffffff1681525081525086868151811061162557fe5b6020026020010181905250505050508060010190506113dc565b60606000600660009054906101000a900473ffffffffffffffffffffffffffffffffffffffff1673ffffffffffffffffffffffffffffffffffffffff1663857c26ff6040518163ffffffff1660e01b815260040160206040518083038186803b1580156116ab57600080fd5b505afa1580156116bf573d6000803e3d6000fd5b505050506040513d601f19601f820116820180604052508101906116e39190612e8a565b905060608167ffffffffffffffff811180156116fe57600080fd5b5060405190808252806020026020018201604052801561173857816020015b6117256125e6565b81526020019060019003908161171d5790505b50905060005b82811015611aab576006546040517feeafd00b00000000000000000000000000000000000000000000000000000000815260009173ffffffffffffffffffffffffffffffffffffffff169063eeafd00b9061179d908590600401613505565b60206040518083038186803b1580156117b557600080fd5b505afa1580156117c9573d6000803e3d6000fd5b505050506040513d601f19601f820116820180604052508101906117ed919061280d565b9050600081905060008173ffffffffffffffffffffffffffffffffffffffff1663e184c9be6040518163ffffffff1660e01b815260040160206040518083038186803b15801561183c57600080fd5b505afa158015611850573d6000803e3d6000fd5b505050506040513d601f19601f820116820180604052508101906118749190612e8a565b905080421015611aa05760608273ffffffffffffffffffffffffffffffffffffffff166306fdde036040518163ffffffff1660e01b815260040160006040518083038186803b1580156118c657600080fd5b505afa1580156118da573d6000803e3d6000fd5b505050506040513d6000823e601f3d9081017fffffffffffffffffffffffffffffffffffffffffffffffffffffffffffffffe01682016040526119209190810190612d22565b905060608373ffffffffffffffffffffffffffffffffffffffff166395d89b416040518163ffffffff1660e01b815260040160006040518083038186803b15801561196a57600080fd5b505afa15801561197e573d6000803e3d6000fd5b505050506040513d6000823e601f3d9081017fffffffffffffffffffffffffffffffffffffffffffffffffffffffffffffffe01682016040526119c49190810190612d22565b905060008473ffffffffffffffffffffffffffffffffffffffff1663313ce5676040518163ffffffff1660e01b815260040160206040518083038186803b158015611a0e57600080fd5b505afa158015611a22573d6000803e3d6000fd5b505050506040513d601f19601f82011682018060405250810190611a469190612e8a565b90506040518060a001604052808773ffffffffffffffffffffffffffffffffffffffff16815260200184815260200183815260200185815260200182815250888881518110611a9157fe5b60200260200101819052505050505b50505060010161173e565b5091505090565b60035473ffffffffffffffffffffffffffffffffffffffff1681565b8151606090818167ffffffffffffffff81118015611aeb57600080fd5b50604051908082528060200260200182016040528015611b2557816020015b611b1261262b565b815260200190600190039081611b0a5790505b50905060005b82811015611eac576000858281518110611b4157fe5b60200260200101519050611b5361262b565b8173ffffffffffffffffffffffffffffffffffffffff16630e53aae9898581518110611b7b57fe5b60200260200101516040518263ffffffff1660e01b8152600401611b9f919061307c565b60a06040518083038186803b158015611bb757600080fd5b505afa158015611bcb573d6000803e3d6000fd5b505050506040513d601f19601f82011682018060405250810190611bef9190612e18565b9050600081602001519050600081620f424003905060008473ffffffffffffffffffffffffffffffffffffffff1663579cd3ca6040518163ffffffff1660e01b815260040160206040518083038186803b158015611c4c57600080fd5b505afa158015611c60573d6000803e3d6000fd5b505050506040513d601f19601f82011682018060405250810190611c849190612f20565b905060008b8781518110611c9457fe5b602002602001015173ffffffffffffffffffffffffffffffffffffffff1673eeeeeeeeeeeeeeeeeeeeeeeeeeeeeeeeeeeeeeee73ffffffffffffffffffffffffffffffffffffffff1614611d83578b8781518110611cee57fe5b602002602001015173ffffffffffffffffffffffffffffffffffffffff166370a08231876040518263ffffffff1660e01b8152600401611d2e919061307c565b60206040518083038186803b158015611d4657600080fd5b505afa158015611d5a573d6000803e3d6000fd5b505050506040513d601f19601f82011682018060405250810190611d7e9190612e8a565b611d9c565b8573ffffffffffffffffffffffffffffffffffffffff16315b6001546040517f70a0823100000000000000000000000000000000000000000000000000000000815291925060009173ffffffffffffffffffffffffffffffffffffffff909116906370a0823190611df8908a9060040161307c565b60206040518083038186803b158015611e1057600080fd5b505afa158015611e24573d6000803e3d6000fd5b505050506040513d601f19601f82011682018060405250810190611e489190612e8a565b90506040518060a001604052808663ffffffff1681526020018563ffffffff1681526020018463ffffffff16815260200183815260200182815250898981518110611e8f57fe5b602002602001018190525050505050505050806001019050611b2b565b509150505b92915050565b81516060908290828167ffffffffffffffff81118015611ed657600080fd5b50604051908082528060200260200182016040528015611f1057816020015b611efd612509565b815260200190600190039081611ef55790505b50905060005b828110156120765760008473ffffffffffffffffffffffffffffffffffffffff1663065a80d8898481518110611f4857fe5b60200260200101516040518263ffffffff1660e01b8152600401611f6c919061350e565b60206040518083038186803b158015611f8457600080fd5b505afa158015611f98573d6000803e3d6000fd5b505050506040513d601f19601f82011682018060405250810190611fbc9190612e8a565b905060008573ffffffffffffffffffffffffffffffffffffffff1663f446c1d06040518163ffffffff1660e01b815260040160206040518083038186803b15801561200657600080fd5b505afa15801561201a573d6000803e3d6000fd5b505050506040513d601f19601f8201168201806040525081019061203e9190612e8a565b905060405180604001604052808381526020018281525084848151811061206157fe5b60209081029190910101525050600101611f16565b5095945050505050565b8151606090818167ffffffffffffffff8111801561209d57600080fd5b506040519080825280602002602001820160405280156120d757816020015b6120c4612659565b8152602001906001900390816120bc5790505b50905060005b82811015611eac576060806121188884815181106120f757fe5b602002602001015188858151811061210b57fe5b60200260200101516103e0565b9150915060405180604001604052808381526020018281525084848151811061213d57fe5b602090810291909101015250506001016120dd565b8151606090818167ffffffffffffffff8111801561216f57600080fd5b506040519080825280602002602001820160405280156121a957816020015b612196612673565b81526020019060019003908161218e5790505b50905060005b82811015611eac57600454865160009173ffffffffffffffffffffffffffffffffffffffff169063065a80d8908990859081106121e857fe5b60200260200101516040518263ffffffff1660e01b815260040161220c919061350e565b60206040518083038186803b15801561222457600080fd5b505afa158015612238573d6000803e3d6000fd5b505050506040513d601f19601f8201168201806040525081019061225c9190612e8a565b9050600086838151811061226c57fe5b602002602001015173ffffffffffffffffffffffffffffffffffffffff166377c7b8fc6040518163ffffffff1660e01b815260040160206040518083038186803b1580156122b957600080fd5b505afa1580156122cd573d6000803e3d6000fd5b505050506040513d601f19601f820116820180604052508101906122f19190612e8a565b90506000600460009054906101000a900473ffffffffffffffffffffffffffffffffffffffff1673ffffffffffffffffffffffffffffffffffffffff1663f446c1d06040518163ffffffff1660e01b815260040160206040518083038186803b15801561235d57600080fd5b505afa158015612371573d6000803e3d6000fd5b505050506040513d601f19601f820116820180604052508101906123959190612e8a565b90506040518060600160405280848152602001838152602001828152508585815181106123be57fe5b60200260200101819052505050508060010190506121af565b6123df6124cb565b6005546040517f8a72ea6a0000000000000000000000000000000000000000000000000000000081526000918291829173ffffffffffffffffffffffffffffffffffffffff1690638a72ea6a9061243a908890600401613505565b60c06040518083038186803b15801561245257600080fd5b505afa158015612466573d6000803e3d6000fd5b505050506040513d601f19601f8201168201806040525081019061248a9190612ea2565b50604080516080810182529a8b5273ffffffffffffffffffffffffffffffffffffffff90911660208b01528901939093526060880152509495945050505050565b604051806080016040528060008152602001600073ffffffffffffffffffffffffffffffffffffffff16815260200160008152602001600081525090565b604051806040016040528060008152602001600081525090565b6040518060600160405280600073ffffffffffffffffffffffffffffffffffffffff16815260200160608152602001600081525090565b6040518060a00160405280600073ffffffffffffffffffffffffffffffffffffffff1681526020016000151581526020016000815260200160008152602001600081525090565b60405180604001604052806125b4612694565b81526020016125c1612694565b905290565b604080516060810182526000808252602082018190529181019190915290565b6040518060a00160405280600073ffffffffffffffffffffffffffffffffffffffff168152602001606081526020016060815260200160008152602001600081525090565b6040805160a08101825260008082526020820181905291810182905260608101829052608081019190915290565b604051806040016040528060608152602001606081525090565b60405180606001604052806000815260200160008152602001600081525090565b604080518082019091526000808252602082015290565b600082601f8301126126bb578081fd5b81356126ce6126c982613551565b61352a565b8181529150602080830190848101818402860182018710156126ef57600080fd5b60005b84811015612717578135612705816135ba565b845292820192908201906001016126f2565b505050505092915050565b600082601f830112612732578081fd5b81356127406126c982613551565b81815291506020808301908481018184028601820187101561276157600080fd5b60005b84811015612717578135612777816135ba565b84529282019290820190600101612764565b600082601f830112612799578081fd5b81356127a76126c982613551565b8181529150602080830190848101818402860182018710156127c857600080fd5b6000805b858110156127f657823580600f0b81146127e4578283fd5b855293830193918301916001016127cc565b50505050505092915050565b8035611eb1816135ba565b60006020828403121561281e578081fd5b8151612829816135ba565b9392505050565b60008060408385031215612842578081fd5b823561284d816135ba565b9150602083013561285d816135ba565b809150509250929050565b6000602080838503121561287a578182fd5b825167ffffffffffffffff811115612890578283fd5b80840185601f8201126128a1578384fd5b805191506128b16126c983613551565b82815283810190828501858502840186018910156128cd578687fd5b8693505b848410156128f85780516128e4816135ba565b8352600193909301929185019185016128d1565b50979650505050505050565b60008060408385031215612916578182fd5b823567ffffffffffffffff8082111561292d578384fd5b612939868387016126ab565b9350602085013591508082111561294e578283fd5b5061295b858286016126ab565b9150509250929050565b60006020808385031215612977578182fd5b823567ffffffffffffffff81111561298d578283fd5b80840185601f82011261299e578384fd5b803591506129ae6126c983613551565b82815283810190828501858502840186018910156129ca578687fd5b8693505b848410156128f85780356129e1816135ba565b8352600193909301929185019185016129ce565b600060208284031215612a06578081fd5b813567ffffffffffffffff811115612a1c578182fd5b612a2884828501612722565b949350505050565b60008060408385031215612a42578182fd5b823567ffffffffffffffff80821115612a59578384fd5b612a6586838701612722565b9350602091508185013581811115612a7b578384fd5b85019050601f81018613612a8d578283fd5b8035612a9b6126c982613551565b81815283810190838501858402850186018a1015612ab7578687fd5b8694505b83851015612ae157612acd8a82612802565b835260019490940193918501918501612abb565b5080955050505050509250929050565b60006020808385031215612b03578182fd5b823567ffffffffffffffff811115612b19578283fd5b80840185601f820112612b2a578384fd5b80359150612b3a6126c983613551565b8281528381019082850185850284018601891015612b56578687fd5b8693505b848410156128f857612b6c8982612802565b835260019390930192918501918501612b5a565b60006020808385031215612b92578182fd5b823567ffffffffffffffff811115612ba8578283fd5b80840185601f820112612bb9578384fd5b80359150612bc96126c983613551565b8281528381019082850185850284018601891015612be5578687fd5b8693505b848410156128f8578035612bfc816135ba565b835260019390930192918501918501612be9565b60008060408385031215612c22578182fd5b823567ffffffffffffffff811115612c38578283fd5b612c4485828601612789565b925050602083013561285d816135ba565b60008060408385031215612c67578182fd5b823567ffffffffffffffff80821115612c7e578384fd5b612c8a86838701612789565b9350602091508185013581811115612ca0578384fd5b85019050601f81018613612cb2578283fd5b8035612cc06126c982613551565b81815283810190838501858402850186018a1015612cdc578687fd5b8694505b83851015612ae157612cf28a82612802565b835260019490940193918501918501612ce0565b600060208284031215612d17578081fd5b8151612829816135df565b600060208284031215612d33578081fd5b815167ffffffffffffffff80821115612d4a578283fd5b81840185601f820112612d5b578384fd5b8051925081831115612d6b578384fd5b612d9c60207fffffffffffffffffffffffffffffffffffffffffffffffffffffffffffffffe0601f8601160161352a565b9150828252856020848301011115612db2578384fd5b611eac83602084016020840161358a565b600060608284031215612dd4578081fd5b612dde606061352a565b8251612de9816135ed565b81526020830151612df9816135ed565b60208201526040830151612e0c81613609565b60408201529392505050565b600060a08284031215612e29578081fd5b612e3360a061352a565b825181526020830151612e4581613609565b60208201526040830151612e58816135df565b60408201526060830151612e6b816135df565b60608201526080830151612e7e816135df565b60808201529392505050565b600060208284031215612e9b578081fd5b5051919050565b60008060008060008060c08789031215612eba578182fd5b865195506020870151612ecc816135ba565b604088015160608901519196509450612ee4816135ba565b6080880151909350612ef5816135ba565b60a088015190925067ffffffffffffffff81168114612f12578182fd5b809150509295509295509295565b600060208284031215612f31578081fd5b815163ffffffff81168114612829578182fd5b805173ffffffffffffffffffffffffffffffffffffffff16825260208082015115159083015260408082015190830152606080820151908301526080908101519082015260a00190565b6000815180845260208085019450808401835b83811015612ff3578151805188528381015173ffffffffffffffffffffffffffffffffffffffff1684890152604080820151908901526060908101519088015260809096019590820190600101612fa1565b509495945050505050565b6000815180845261301681602086016020860161358a565b601f017fffffffffffffffffffffffffffffffffffffffffffffffffffffffffffffffe0169290920160200192915050565b80518252602090810151910152565b805173ffffffffffffffffffffffffffffffffffffffff168252602090810151910152565b73ffffffffffffffffffffffffffffffffffffffff91909116815260200190565b73ffffffffffffffffffffffffffffffffffffffff92831681529116602082015260400190565b6000604082526130d76040830185612f8e565b82810360208401526130e98185612f8e565b95945050505050565b60208082528251828201819052600091906040908185019080840286018301878501865b838110156131bd577fffffffffffffffffffffffffffffffffffffffffffffffffffffffffffffffc0898403018552815160608085016131568351613571565b865289830151828b88015281925080516131708184613505565b9350908b0191508b905b8082101561319f5761318d848451612f44565b93508b8301925060018201915061317a565b50505090870151938701939093529386019390860190600101613116565b509098975050505050505050565b602080825282518282018190526000919060409081850190868401855b82811015613237578151805163ffffffff908116865287820151811688870152868201511686860152606080820151908601526080908101519085015260a090930192908501906001016131e8565b5091979650505050505050565b602080825282518282018190526000919060409081850190868401855b8281101561323757613274848351613048565b9284019290850190600101613261565b602080825282518282018190526000919060409081850190868401855b8281101561323757815180518552868101518786015285015185850152606090930192908501906001016132a1565b60208082528251828201819052600091906040908185019080840286018301878501865b838110156131bd577fffffffffffffffffffffffffffffffffffffffffffffffffffffffffffffffc08984030185528151805187855261333688860182612f8e565b8983015191508581038a87015261334d8183612f8e565b978a01979550505091870191506001016132f4565b60208082528251828201819052600091906040908185019080840286018301878501865b838110156131bd577fffffffffffffffffffffffffffffffffffffffffffffffffffffffffffffffc0898403018552815160a073ffffffffffffffffffffffffffffffffffffffff825116855288820151818a8701526133e882870182612ffe565b8984015192508681038a8801526133ff8184612ffe565b6060858101519089015260809485015194909701939093525050509386019390860190600101613386565b602080825282518282018190526000919060409081850190868401855b828110156132375761345a848351613048565b9284019290850190600101613447565b602080825282518282018190526000919060409081850190868401855b8281101561323757815161349c858251613057565b868101516134ac87870182613057565b50506080939093019290850190600101613487565b6020808252825182820181905260009190848201906040850190845b818110156134f9578351835292840192918401916001016134dd565b50909695505050505050565b90815260200190565b600f9190910b815260200190565b60408101611eb18284613048565b60405181810167ffffffffffffffff8111828210171561354957600080fd5b604052919050565b600067ffffffffffffffff821115613567578081fd5b5060209081020190565b73ffffffffffffffffffffffffffffffffffffffff1690565b60005b838110156135a557818101518382015260200161358d565b838111156135b4576000848401525b50505050565b73ffffffffffffffffffffffffffffffffffffffff811681146135dc57600080fd5b50565b80151581146135dc57600080fd5b6dffffffffffffffffffffffffffff811681146135dc57600080fd5b63ffffffff811681146135dc57600080fdfea2646970667358221220a48648f9cac93abcd774bfba1281e0374d34ead5a6da7cd67d552c5a547b979564736f6c634300060a0033",
  "source": "pragma solidity ^0.6.0;\npragma experimental ABIEncoderV2;\n\ninterface IERC20Token {\n\tfunction balanceOf(address) external pure returns (uint256);\n}\n\ninterface UniswapFactory {\n    function getExchange(IERC20Token) external pure returns (address);\n}\n\ninterface UniswapV2Pair {\n    struct reserves {\n        uint112 reserve0;\n        uint112 reserve1;\n        uint32 blockTimestampLast;\n    }\n    function getReserves() external view returns (reserves memory);\n    function token0() external view returns (address);\n    function token1() external view returns (address);\n}\n\ninterface BancorConverter {\n    struct tokenInfo {\n        uint256 virtualBalance;\n        uint32 ratio;\n        bool isVirtualBalanceEnabled;\n        bool isSaleEnabled;\n        bool isSet;\n    }\n\n    function connectors(IERC20Token) external pure returns (tokenInfo memory);\n    function conversionFee() external pure returns (uint32);\n}\n\ninterface BalancerPool {\n    struct balancerToken {\n        address token;\n        bool isBound;   // is token bound to pool\n        uint index;\n        uint denorm;  // denormalized weight\n        uint balance;\n    }\n    struct balancerData {\n        address pool;\n        balancerToken[] tokens;\n        uint fee;\n    }\n\n    function isPublicSwap() external view returns (bool);\n    function isFinalized() external view returns (bool);\n    function isBound(address t) external view returns (bool);\n    function getCurrentTokens() external view returns (address[] memory tokens);\n    function getDenormalizedWeight(address token) external view returns (uint);\n    function getBalance(address token) external view returns (uint);\n    function getSwapFee() external view returns (uint);\n}\n\ninterface SynthetixDepot {\n    function totalSellableDeposits() external pure returns (uint256);\n}\n\ninterface SynthetixRates {\n    function rateForCurrency(bytes32) external pure returns (uint256);\n}\n\ninterface CurveExchange {\n    function balances(int128) external pure returns (uint256);\n    function A() external pure returns (uint256);\n}\n\ninterface BalancerExchange {\n    function pools(int128) external pure returns (uint256);\n}\n\ninterface yToken {\n    function getPricePerFullShare() external pure returns (uint256);\n}\n\ninterface MatchingMarket {\n    function offers(uint256 id) external view returns(uint256 pay_amt, address pay_gem, uint256 buy_amt, address buy_gem, address owner, uint64 timestamp);\n    function getOfferCount(address base, address quote) external view returns(uint256 count);\n    function getBestOffer(address base, address quote) external view returns(uint256 id);\n    function getWorseOffer(uint256 id) external view returns(uint256 worseOfferId);\n}\n\ninterface cToken {\n    function exchangeRateStored() external pure returns (uint256);\n}\n\ninterface OptionsFactory {\n    function getNumberOfOptionsContracts() external pure returns (uint256);\n    function optionsContracts(uint256) external pure returns(address);\n}\n\ninterface oToken {\n    function name() external pure returns (string memory);\n    function symbol() external pure returns (string memory);\n    function expiry() external pure returns (uint256);\n    function decimals() external pure returns (uint256);\n}\n\ncontract Oracle {\n    struct uniswapData {\n        uint256 tokenBalance;\n        uint256 ethBalance;\n    }\n    UniswapFactory public uniFactory = UniswapFactory(0xc0a47dFe034B400B47bDaD5FecDa2621de6c4d95);\n    function getUniswapData(IERC20Token[] memory tokens) public view returns (uniswapData[] memory) {\n        uint256 length = tokens.length;\n\t\tuniswapData[] memory data = new uniswapData[](length);\n\t\tfor (uint256 i = 0; i < length; ++i) {\n            IERC20Token token = tokens[i];\n            address exchange = uniFactory.getExchange(token);\n\t\t\tuint256 tokenBalance = token.balanceOf(exchange);\n\t\t\tuint256 ethBalance = exchange.balance;\n            data[i] = uniswapData({\n                tokenBalance: tokenBalance,\n                ethBalance: ethBalance\n            });\n\t\t}\n\t\treturn data;\n\t}\n\n    struct uniswapV2TokenBalance {\n        address token;\n        uint256 balance;\n    }\n    struct uniswapV2Data {\n        uniswapV2TokenBalance token0;\n        uniswapV2TokenBalance token1;\n    }\n    function getUniswapV2Data(UniswapV2Pair[] memory pairs) public view returns (uniswapV2Data[] memory) {\n        uint256 length = pairs.length;\n\t\tuniswapV2Data[] memory data = new uniswapV2Data[](length);\n\t\tfor (uint256 i = 0; i < length; ++i) {\n            UniswapV2Pair pair = pairs[i];\n\n            address token0 = pair.token0();\n            address token1 = pair.token1();\n            UniswapV2Pair.reserves memory reserves = pair.getReserves();\n\n            data[i] = uniswapV2Data({\n                token0: uniswapV2TokenBalance({\n                    token: token0,\n                    balance: reserves.reserve0\n                }),\n                token1: uniswapV2TokenBalance({\n                    token: token1,\n                    balance: reserves.reserve1\n                })\n            });\n\t\t}\n\t\treturn data;\n\t}\n\n    struct bancorData {\n        uint32 eWeight;\n        uint32 tWeight;\n        uint32 tFee;\n        uint256 tBalance;\n        uint256 eBalance;\n    }\n    IERC20Token public BNT = IERC20Token(0x1F573D6Fb3F13d689FF844B4cE37794d79a7FF1C);\n    function getBancorData(IERC20Token[] memory tokens, BancorConverter[] memory converters) public view returns (bancorData[] memory) {\n        uint256 length = tokens.length;\n        bancorData[] memory data = new bancorData[](length);\n        for (uint256 i = 0; i < length; ++i) {\n            BancorConverter converter = converters[i];\n            BancorConverter.tokenInfo memory info = converter.connectors(tokens[i]);\n            uint32 eWeight = info.ratio;\n            uint32 tWeight = 1000000 - eWeight;\n            uint32 tFee = converter.conversionFee();\n            uint256 tBalance = address(tokens[i]) == 0xEeeeeEeeeEeEeeEeEeEeeEEEeeeeEeeeeeeeEEeE ? address(converter).balance : tokens[i].balanceOf(address(converter));\n            uint256 eBalance = BNT.balanceOf(address(converter));\n            data[i] = bancorData({\n                eWeight: eWeight,\n                tWeight: tWeight,\n                tFee: tFee,\n                tBalance: tBalance,\n                eBalance: eBalance\n            });\n        }\n        return data;\n    }\n\n\n    function getBalancerData(BalancerPool[] memory pools) public view returns (BalancerPool.balancerData[] memory) {\n        uint256 length = pools.length;\n        BalancerPool.balancerData[] memory data = new BalancerPool.balancerData[](length);\n        for (uint256 i = 0; i < length; ++i) {\n            address pool = address(pools[i]);\n            BalancerPool BP = BalancerPool(pool);\n            bool isPublicSwap = BP.isPublicSwap();\n            // Token allows for public swap\n            if (isPublicSwap) {\n                address[] memory balancerTokens = BP.getCurrentTokens();\n                BalancerPool.balancerToken[] memory tokenData = new BalancerPool.balancerToken[](balancerTokens.length);\n                for (uint256 j = 0; j < balancerTokens.length; ++j) {\n                    address token = balancerTokens[j];\n                    bool isBound = BP.isBound(token);   // is token bound to pool\n                    uint denorm = BP.getDenormalizedWeight(token);  // denormalized weight\n                    uint balance = BP.getBalance(token);\n                    tokenData[j] = BalancerPool.balancerToken({\n                        token: token,\n                        isBound: isBound,\n                        index: j,\n                        denorm: denorm,\n                        balance: balance\n                    });\n                }\n                uint fee = BP.getSwapFee();\n                data[i] = BalancerPool.balancerData({\n                    pool: pool,\n                    tokens: tokenData,\n                    fee: fee\n                });\n\n            }\n        }\n        return data;\n    }\n\n    struct synthetixData {\n        uint256 rate;\n        uint256 balance;\n    }\n    SynthetixDepot public Depot = SynthetixDepot(0xE1f64079aDa6Ef07b03982Ca34f1dD7152AA3b86);\n    SynthetixRates public Rates = SynthetixRates(0x9D7F70AF5DF5D5CC79780032d47a34615D1F1d77);\n    function getSynthetixData() public view returns (synthetixData memory) {\n        bytes32 ethKey = 0x4554480000000000000000000000000000000000000000000000000000000000;\n        uint256 rate = Rates.rateForCurrency(ethKey);\n        uint256 balance = Depot.totalSellableDeposits();\n        return synthetixData({\n            rate: rate,\n            balance: balance\n        });\n    }\n\n    struct curveData {\n        uint256 balance;\n        uint256 pricePerShare;\n        uint256 A;\n    }\n    CurveExchange public Exchange = CurveExchange(0x45F783CCE6B7FF23B2ab2D70e416cdb7D6055f51);\n    function getCurveData(int128[] memory ids, yToken[] memory tokens) public view returns (curveData[] memory) {\n        uint256 length = ids.length;\n        curveData[] memory data = new curveData[](length);\n        for (uint256 i = 0; i < length; ++i) {\n            uint256 balance = Exchange.balances(ids[i]);\n            uint256 pricePerShare = tokens[i].getPricePerFullShare();\n            uint256 A = Exchange.A();\n            data[i] = curveData({\n                balance: balance,\n                pricePerShare: pricePerShare,\n                A: A\n            });\n        }\n        return data;\n    }\n\n    struct curveCTokenData {\n        uint256 balance;\n        uint256 A;\n    }\n    function getCurveCData(int128[] memory ids, address exchange) public view returns (curveCTokenData[] memory) {\n        CurveExchange tokenExchange = CurveExchange(exchange);\n        uint256 length = ids.length;\n        curveCTokenData[] memory data = new curveCTokenData[](length);\n        for (uint256 i = 0; i < length; ++i) {\n            uint256 balance = tokenExchange.balances(ids[i]);\n            uint256 A = tokenExchange.A();\n            data[i] = curveCTokenData({\n                balance: balance,\n                A: A\n            });\n        }\n        return data;\n    }\n\n    struct Offer {\n        uint256 id;\n        address maker;\n        uint256 makerAmount;\n        uint256 takerAmount;\n    }\n\n    struct oasisData {\n        Offer[] bids;\n        Offer[] asks;\n    }\n    MatchingMarket oasisMarket = MatchingMarket(0x794e6e91555438aFc3ccF1c5076A74F42133d08D);\n\n    function getOasisData(address[] memory bases, address[] memory quotes) public view returns (oasisData[] memory) {\n        uint256 length = bases.length;\n        oasisData[] memory data = new oasisData[](length);\n        for (uint256 i = 0; i < length; ++i) {\n            (Offer[] memory bids, Offer[] memory asks) = getOrderBook(bases[i], quotes[i]);\n            data[i] = oasisData({\n                bids: bids,\n                asks: asks\n            });\n        }\n        return data;\n    }\n\n    function getOrderBook(address base, address quote) public view returns(Offer[] memory bids, Offer[] memory asks) {\n        uint256 offerId;\n        uint256 bidCount = oasisMarket.getOfferCount(quote, base);\n        if (bidCount == 0) {\n            bids = new Offer[](1);\n            bids[0] = Offer({\n                id: 0,\n                maker: 0x0000000000000000000000000000000000000000,\n                makerAmount: 0,\n                takerAmount: 0\n            });\n        } else {\n            bids = new Offer[](bidCount);\n            offerId = oasisMarket.getBestOffer(quote, base);\n            bids[0] = getOffer(offerId);\n            for (uint256 i = 1; i < bidCount; i++) {\n                offerId = oasisMarket.getWorseOffer(offerId);\n                bids[i] = getOffer(offerId);\n            }\n        }\n\n        uint256 askCount = oasisMarket.getOfferCount(base, quote);\n        if (askCount == 0) {\n            asks = new Offer[](1);\n            asks[0] = Offer({\n                id: 0,\n                maker: 0x0000000000000000000000000000000000000000,\n                makerAmount: 0,\n                takerAmount: 0\n            });\n        } else {\n            asks = new Offer[](askCount);\n            offerId = oasisMarket.getBestOffer(base, quote);\n            asks[0] = getOffer(offerId);\n            for (uint256 i = 1; i < askCount; i++) {\n                offerId = oasisMarket.getWorseOffer(offerId);\n                asks[i] = getOffer(offerId);\n            }\n        }\n    }\n\n        \n    function getOffer(uint256 id) private view returns(Offer memory offer) {\n        (uint256 pay_amt, , uint256 buy_amt, , address owner, ) = oasisMarket.offers(id);\n        offer = Offer(id, owner, pay_amt, buy_amt);\n    }\n\n    function min(uint256 a, uint256 b) internal pure returns (uint256) {\n        return a < b ? a : b;\n    }\n\n    function getCompoundData(cToken[] memory tokens) public view returns (uint256[] memory) {\n        uint256 length = tokens.length;\n\t\tuint256[] memory data = new uint256[](length);\n\t\tfor (uint256 i = 0; i < length; ++i) {\n\t\t\tuint256 rate = tokens[i].exchangeRateStored();\n            data[i] = rate;\n\t\t}\n\t\treturn data;\n    }\n\n    struct opynData {\n        address oTokenAddress;\n        string name;\n        string symbol;\n        uint256 expiry;\n        uint256 decimals;\n    }\n\n    OptionsFactory public opynFactory = OptionsFactory(0xcC5d905b9c2c8C9329Eb4e25dc086369D6C7777C);\n    function getOpynData() public view returns (opynData[] memory) {\n        uint256 numOTokens = opynFactory.getNumberOfOptionsContracts();\n        opynData[] memory data = new opynData[](numOTokens);\n\n        for (uint256 i = 0; i < numOTokens; i++) {\n            address token = opynFactory.optionsContracts(i);\n            oToken o = oToken(token);\n            uint256 expiry = o.expiry();\n            if (now < expiry) {\n                string memory name = o.name();\n                string memory symbol = o.symbol();\n                uint256 decimals = o.decimals();\n\n                data[i] = opynData({\n                    oTokenAddress: token,\n                    name: name,\n                    symbol: symbol,\n                    expiry: expiry,\n                    decimals: decimals\n                });\n            }\n        }\n\n        return data;\n    }\n}",
  "sourcePath": "/Users/nathanieloden/Documents/progrimz/ConcourseOpen/oracles/contracts/Oracle.sol",
  "compiler": {
    "name": "solc",
    "version": "0.6.10+commit.00c0fcaf.Emscripten.clang"
  },
  "schemaVersion": "3.0.23",
  "updatedAt": "2020-06-17T18:11:53.997Z",
  "networkType": "ethereum",
  "devdoc": {
    "methods": {}
  },
  "userdoc": {
    "methods": {}
  }
}