{
  "contractName": "Oracle",
  "abi": [
    {
      "inputs": [],
      "name": "BNT",
      "outputs": [
        {
          "internalType": "contract IERC20Token",
          "name": "",
          "type": "address"
        }
      ],
      "stateMutability": "view",
      "type": "function",
      "constant": true
    },
    {
      "inputs": [],
      "name": "Depot",
      "outputs": [
        {
          "internalType": "contract SynthetixDepot",
          "name": "",
          "type": "address"
        }
      ],
      "stateMutability": "view",
      "type": "function",
      "constant": true
    },
    {
      "inputs": [],
      "name": "Exchange",
      "outputs": [
        {
          "internalType": "contract CurveExchange",
          "name": "",
          "type": "address"
        }
      ],
      "stateMutability": "view",
      "type": "function",
      "constant": true
    },
    {
      "inputs": [],
      "name": "Rates",
      "outputs": [
        {
          "internalType": "contract SynthetixRates",
          "name": "",
          "type": "address"
        }
      ],
      "stateMutability": "view",
      "type": "function",
      "constant": true
    },
    {
      "inputs": [],
      "name": "SusdExchange",
      "outputs": [
        {
          "internalType": "contract CurveExchange",
          "name": "",
          "type": "address"
        }
      ],
      "stateMutability": "view",
      "type": "function",
      "constant": true
    },
    {
      "inputs": [],
      "name": "uniFactory",
      "outputs": [
        {
          "internalType": "contract UniswapFactory",
          "name": "",
          "type": "address"
        }
      ],
      "stateMutability": "view",
      "type": "function",
      "constant": true
    },
    {
      "inputs": [
        {
          "internalType": "contract IERC20Token[]",
          "name": "tokens",
          "type": "address[]"
        }
      ],
      "name": "getUniswapData",
      "outputs": [
        {
          "components": [
            {
              "internalType": "uint256",
              "name": "tokenBalance",
              "type": "uint256"
            },
            {
              "internalType": "uint256",
              "name": "ethBalance",
              "type": "uint256"
            }
          ],
          "internalType": "struct Oracle.uniswapData[]",
          "name": "",
          "type": "tuple[]"
        }
      ],
      "stateMutability": "view",
      "type": "function",
      "constant": true
    },
    {
      "inputs": [
        {
          "internalType": "contract IERC20Token[]",
          "name": "tokens",
          "type": "address[]"
        },
        {
          "internalType": "contract BancorConverter[]",
          "name": "converters",
          "type": "address[]"
        }
      ],
      "name": "getBancorData",
      "outputs": [
        {
          "components": [
            {
              "internalType": "uint32",
              "name": "eWeight",
              "type": "uint32"
            },
            {
              "internalType": "uint32",
              "name": "tWeight",
              "type": "uint32"
            },
            {
              "internalType": "uint32",
              "name": "tFee",
              "type": "uint32"
            },
            {
              "internalType": "uint256",
              "name": "tBalance",
              "type": "uint256"
            },
            {
              "internalType": "uint256",
              "name": "eBalance",
              "type": "uint256"
            }
          ],
          "internalType": "struct Oracle.bancorData[]",
          "name": "",
          "type": "tuple[]"
        }
      ],
      "stateMutability": "view",
      "type": "function",
      "constant": true
    },
    {
      "inputs": [
        {
          "internalType": "contract BalancerPool[]",
          "name": "pools",
          "type": "address[]"
        }
      ],
      "name": "getBalancerData",
      "outputs": [
        {
          "components": [
            {
              "internalType": "address",
              "name": "pool",
              "type": "address"
            },
            {
              "components": [
                {
                  "internalType": "address",
                  "name": "token",
                  "type": "address"
                },
                {
                  "internalType": "bool",
                  "name": "isBound",
                  "type": "bool"
                },
                {
                  "internalType": "uint256",
                  "name": "index",
                  "type": "uint256"
                },
                {
                  "internalType": "uint256",
                  "name": "denorm",
                  "type": "uint256"
                },
                {
                  "internalType": "uint256",
                  "name": "balance",
                  "type": "uint256"
                }
              ],
              "internalType": "struct BalancerPool.balancerToken[]",
              "name": "tokens",
              "type": "tuple[]"
            },
            {
              "internalType": "uint256",
              "name": "fee",
              "type": "uint256"
            }
          ],
          "internalType": "struct BalancerPool.balancerData[]",
          "name": "",
          "type": "tuple[]"
        }
      ],
      "stateMutability": "view",
      "type": "function",
      "constant": true
    },
    {
      "inputs": [],
      "name": "getSynthetixData",
      "outputs": [
        {
          "components": [
            {
              "internalType": "uint256",
              "name": "rate",
              "type": "uint256"
            },
            {
              "internalType": "uint256",
              "name": "balance",
              "type": "uint256"
            }
          ],
          "internalType": "struct Oracle.synthetixData",
          "name": "",
          "type": "tuple"
        }
      ],
      "stateMutability": "view",
      "type": "function",
      "constant": true
    },
    {
      "inputs": [
        {
          "internalType": "int128[]",
          "name": "ids",
          "type": "int128[]"
        },
        {
          "internalType": "contract yToken[]",
          "name": "tokens",
          "type": "address[]"
        }
      ],
      "name": "getCurveData",
      "outputs": [
        {
          "components": [
            {
              "internalType": "uint256",
              "name": "balance",
              "type": "uint256"
            },
            {
              "internalType": "uint256",
              "name": "pricePerShare",
              "type": "uint256"
            },
            {
              "internalType": "uint256",
              "name": "A",
              "type": "uint256"
            }
          ],
          "internalType": "struct Oracle.curveData[]",
          "name": "",
          "type": "tuple[]"
        }
      ],
      "stateMutability": "view",
      "type": "function",
      "constant": true
    },
    {
      "inputs": [
        {
          "internalType": "int128[]",
          "name": "ids",
          "type": "int128[]"
        }
      ],
      "name": "getCurveSusdData",
      "outputs": [
        {
          "components": [
            {
              "internalType": "uint256",
              "name": "balance",
              "type": "uint256"
            },
            {
              "internalType": "uint256",
              "name": "A",
              "type": "uint256"
            }
          ],
          "internalType": "struct Oracle.curveSusdData[]",
          "name": "",
          "type": "tuple[]"
        }
      ],
      "stateMutability": "view",
      "type": "function",
      "constant": true
    },
    {
      "inputs": [
        {
          "internalType": "address[]",
          "name": "bases",
          "type": "address[]"
        },
        {
          "internalType": "address[]",
          "name": "quotes",
          "type": "address[]"
        }
      ],
      "name": "getOasisData",
      "outputs": [
        {
          "components": [
            {
              "components": [
                {
                  "internalType": "uint256",
                  "name": "id",
                  "type": "uint256"
                },
                {
                  "internalType": "address",
                  "name": "maker",
                  "type": "address"
                },
                {
                  "internalType": "uint256",
                  "name": "makerAmount",
                  "type": "uint256"
                },
                {
                  "internalType": "uint256",
                  "name": "takerAmount",
                  "type": "uint256"
                }
              ],
              "internalType": "struct Oracle.Offer[]",
              "name": "bids",
              "type": "tuple[]"
            },
            {
              "components": [
                {
                  "internalType": "uint256",
                  "name": "id",
                  "type": "uint256"
                },
                {
                  "internalType": "address",
                  "name": "maker",
                  "type": "address"
                },
                {
                  "internalType": "uint256",
                  "name": "makerAmount",
                  "type": "uint256"
                },
                {
                  "internalType": "uint256",
                  "name": "takerAmount",
                  "type": "uint256"
                }
              ],
              "internalType": "struct Oracle.Offer[]",
              "name": "asks",
              "type": "tuple[]"
            }
          ],
          "internalType": "struct Oracle.oasisData[]",
          "name": "",
          "type": "tuple[]"
        }
      ],
      "stateMutability": "view",
      "type": "function",
      "constant": true
    },
    {
      "inputs": [
        {
          "internalType": "address",
          "name": "base",
          "type": "address"
        },
        {
          "internalType": "address",
          "name": "quote",
          "type": "address"
        }
      ],
      "name": "getOrderBook",
      "outputs": [
        {
          "components": [
            {
              "internalType": "uint256",
              "name": "id",
              "type": "uint256"
            },
            {
              "internalType": "address",
              "name": "maker",
              "type": "address"
            },
            {
              "internalType": "uint256",
              "name": "makerAmount",
              "type": "uint256"
            },
            {
              "internalType": "uint256",
              "name": "takerAmount",
              "type": "uint256"
            }
          ],
          "internalType": "struct Oracle.Offer[]",
          "name": "bids",
          "type": "tuple[]"
        },
        {
          "components": [
            {
              "internalType": "uint256",
              "name": "id",
              "type": "uint256"
            },
            {
              "internalType": "address",
              "name": "maker",
              "type": "address"
            },
            {
              "internalType": "uint256",
              "name": "makerAmount",
              "type": "uint256"
            },
            {
              "internalType": "uint256",
              "name": "takerAmount",
              "type": "uint256"
            }
          ],
          "internalType": "struct Oracle.Offer[]",
          "name": "asks",
          "type": "tuple[]"
        }
      ],
      "stateMutability": "view",
      "type": "function",
      "constant": true
    },
    {
      "inputs": [
        {
          "internalType": "contract cToken[]",
          "name": "tokens",
          "type": "address[]"
        }
      ],
      "name": "getCompoundData",
      "outputs": [
        {
          "internalType": "uint256[]",
          "name": "",
          "type": "uint256[]"
        }
      ],
      "stateMutability": "view",
      "type": "function",
      "constant": true
    }
  ],
  "bytecode": "0x6080604052600080546001600160a01b031990811673c0a47dfe034b400b47bdad5fecda2621de6c4d9517909155600180548216731f573d6fb3f13d689ff844b4ce37794d79a7ff1c17905560028054821673e1f64079ada6ef07b03982ca34f1dd7152aa3b86179055600380548216739d7f70af5df5d5cc79780032d47a34615d1f1d771790556004805482167345f783cce6b7ff23b2ab2d70e416cdb7d6055f5117905560058054821673a5407eae9ba41422680e2e00537571bcc53efbfd1790556006805490911673794e6e91555438afc3ccf1c5076a74f42133d08d1790553480156100ee57600080fd5b50612ac2806100fe6000396000f3fe608060405234801561001057600080fd5b50600436106100f55760003560e01c80634e60860e11610097578063a03394d211610066578063a03394d2146101ee578063ac333342146101f6578063db5ac06b14610216578063ecd84b9a14610236576100f5565b80634e60860e146101b657806359659176146101be57806376771d4b146101de57806389b4a36f146101e6576100f5565b8063203d39ff116100d3578063203d39ff14610140578063294bea9f146101615780632e44bc0d146101815780634191e2fd14610196576100f5565b806307e3a36c146100fa5780630a77b07814610123578063202a6eec14610138575b600080fd5b61010d6101083660046122f3565b610256565b60405161011a9190612990565b60405180910390f35b61012b610369565b60405161011a9190612637565b61012b610385565b61015361014e366004612032565b6103a1565b60405161011a92919061267f565b61017461016f3660046121f7565b610a1e565b60405161011a9190612950565b610189610c2e565b60405161011a91906129eb565b6101a96101a4366004612167565b610dbe565b60405161011a91906126ad565b61012b61135c565b6101d16101cc366004612383565b611378565b60405161011a919061287e565b61012b61155e565b61012b61157a565b61012b611596565b610209610204366004612232565b6115b2565b60405161011a91906127b9565b610229610224366004612106565b611923565b60405161011a91906128be565b6102496102443660046123b6565b6119f5565b60405161011a9190612832565b8051606090818167ffffffffffffffff8111801561027357600080fd5b5060405190808252806020026020018201604052801561029d578160200160208202803683370190505b50905060005b828110156103615760008582815181106102b957fe5b602002602001015173ffffffffffffffffffffffffffffffffffffffff1663182df0f56040518163ffffffff1660e01b815260040160206040518083038186803b15801561030657600080fd5b505afa15801561031a573d6000803e3d6000fd5b505050506040513d601f19601f8201168201806040525081019061033e91906124fe565b90508083838151811061034d57fe5b6020908102919091010152506001016102a3565b509392505050565b60045473ffffffffffffffffffffffffffffffffffffffff1681565b60055473ffffffffffffffffffffffffffffffffffffffff1681565b6006546040517f7ca9429a0000000000000000000000000000000000000000000000000000000081526060918291600091829173ffffffffffffffffffffffffffffffffffffffff90911690637ca9429a906104039088908a90600401612658565b60206040518083038186803b15801561041b57600080fd5b505afa15801561042f573d6000803e3d6000fd5b505050506040513d601f19601f8201168201806040525081019061045391906124fe565b9050806104e45760408051600180825281830190925290816020015b610477611d6e565b81526020019060019003908161046f579050509350604051806080016040528060008152602001600073ffffffffffffffffffffffffffffffffffffffff168152602001600081526020016000815250846000815181106104d457fe5b60200260200101819052506106df565b8067ffffffffffffffff811180156104fb57600080fd5b5060405190808252806020026020018201604052801561053557816020015b610522611d6e565b81526020019060019003908161051a5790505b506006546040517f0374fc6f00000000000000000000000000000000000000000000000000000000815291955073ffffffffffffffffffffffffffffffffffffffff1690630374fc6f9061058f9088908a90600401612658565b60206040518083038186803b1580156105a757600080fd5b505afa1580156105bb573d6000803e3d6000fd5b505050506040513d601f19601f820116820180604052508101906105df91906124fe565b91506105ea82611c7a565b846000815181106105f757fe5b602090810291909101015260015b818110156106dd576006546040517f943911bc00000000000000000000000000000000000000000000000000000000815273ffffffffffffffffffffffffffffffffffffffff9091169063943911bc906106639086906004016129d4565b60206040518083038186803b15801561067b57600080fd5b505afa15801561068f573d6000803e3d6000fd5b505050506040513d601f19601f820116820180604052508101906106b391906124fe565b92506106be83611c7a565b8582815181106106ca57fe5b6020908102919091010152600101610605565b505b6006546040517f7ca9429a00000000000000000000000000000000000000000000000000000000815260009173ffffffffffffffffffffffffffffffffffffffff1690637ca9429a90610738908a908a90600401612658565b60206040518083038186803b15801561075057600080fd5b505afa158015610764573d6000803e3d6000fd5b505050506040513d601f19601f8201168201806040525081019061078891906124fe565b9050806108195760408051600180825281830190925290816020015b6107ac611d6e565b8152602001906001900390816107a4579050509350604051806080016040528060008152602001600073ffffffffffffffffffffffffffffffffffffffff1681526020016000815260200160008152508460008151811061080957fe5b6020026020010181905250610a14565b8067ffffffffffffffff8111801561083057600080fd5b5060405190808252806020026020018201604052801561086a57816020015b610857611d6e565b81526020019060019003908161084f5790505b506006546040517f0374fc6f00000000000000000000000000000000000000000000000000000000815291955073ffffffffffffffffffffffffffffffffffffffff1690630374fc6f906108c4908a908a90600401612658565b60206040518083038186803b1580156108dc57600080fd5b505afa1580156108f0573d6000803e3d6000fd5b505050506040513d601f19601f8201168201806040525081019061091491906124fe565b925061091f83611c7a565b8460008151811061092c57fe5b602090810291909101015260015b81811015610a12576006546040517f943911bc00000000000000000000000000000000000000000000000000000000815273ffffffffffffffffffffffffffffffffffffffff9091169063943911bc906109989087906004016129d4565b60206040518083038186803b1580156109b057600080fd5b505afa1580156109c4573d6000803e3d6000fd5b505050506040513d601f19601f820116820180604052508101906109e891906124fe565b93506109f384611c7a565b8582815181106109ff57fe5b602090810291909101015260010161093a565b505b5050509250929050565b8051606090818167ffffffffffffffff81118015610a3b57600080fd5b50604051908082528060200260200182016040528015610a7557816020015b610a62611dac565b815260200190600190039081610a5a5790505b50905060005b82811015610361576000858281518110610a9157fe5b6020908102919091010151600080546040517f06f2bf62000000000000000000000000000000000000000000000000000000008152929350909173ffffffffffffffffffffffffffffffffffffffff909116906306f2bf6290610af8908590600401612637565b60206040518083038186803b158015610b1057600080fd5b505afa158015610b24573d6000803e3d6000fd5b505050506040513d601f19601f82011682018060405250810190610b48919061200f565b905060008273ffffffffffffffffffffffffffffffffffffffff166370a08231836040518263ffffffff1660e01b8152600401610b859190612637565b60206040518083038186803b158015610b9d57600080fd5b505afa158015610bb1573d6000803e3d6000fd5b505050506040513d601f19601f82011682018060405250810190610bd591906124fe565b905060008273ffffffffffffffffffffffffffffffffffffffff16319050604051806040016040528083815260200182815250868681518110610c1457fe5b602002602001018190525050505050806001019050610a7b565b610c36611dac565b6003546040517fac82f6080000000000000000000000000000000000000000000000000000000081527f45544800000000000000000000000000000000000000000000000000000000009160009173ffffffffffffffffffffffffffffffffffffffff9091169063ac82f60890610cb19085906004016129d4565b60206040518083038186803b158015610cc957600080fd5b505afa158015610cdd573d6000803e3d6000fd5b505050506040513d601f19601f82011682018060405250810190610d0191906124fe565b90506000600260009054906101000a900473ffffffffffffffffffffffffffffffffffffffff1673ffffffffffffffffffffffffffffffffffffffff16634d0387fb6040518163ffffffff1660e01b815260040160206040518083038186803b158015610d6d57600080fd5b505afa158015610d81573d6000803e3d6000fd5b505050506040513d601f19601f82011682018060405250810190610da591906124fe565b6040805180820190915292835260208301525091505090565b8051606090818167ffffffffffffffff81118015610ddb57600080fd5b50604051908082528060200260200182016040528015610e1557816020015b610e02611dc6565b815260200190600190039081610dfa5790505b50905060005b82811015610361576000858281518110610e3157fe5b60200260200101519050600081905060008173ffffffffffffffffffffffffffffffffffffffff1663fde924f76040518163ffffffff1660e01b815260040160206040518083038186803b158015610e8857600080fd5b505afa158015610e9c573d6000803e3d6000fd5b505050506040513d601f19601f82011682018060405250810190610ec09190612468565b905060008273ffffffffffffffffffffffffffffffffffffffff16638d4e40836040518163ffffffff1660e01b815260040160206040518083038186803b158015610f0a57600080fd5b505afa158015610f1e573d6000803e3d6000fd5b505050506040513d601f19601f82011682018060405250810190610f429190612468565b9050818015610f4e5750805b1561134d5760608373ffffffffffffffffffffffffffffffffffffffff1663be3bbd2e6040518163ffffffff1660e01b815260040160006040518083038186803b158015610f9b57600080fd5b505afa158015610faf573d6000803e3d6000fd5b505050506040513d6000823e601f3d9081017fffffffffffffffffffffffffffffffffffffffffffffffffffffffffffffffe0168201604052610ff5919081019061206a565b90506060815167ffffffffffffffff8111801561101157600080fd5b5060405190808252806020026020018201604052801561104b57816020015b611038611dfd565b8152602001906001900390816110305790505b50905060005b825181101561127e57600083828151811061106857fe5b6020026020010151905060008773ffffffffffffffffffffffffffffffffffffffff16632f37b624836040518263ffffffff1660e01b81526004016110ad9190612637565b60206040518083038186803b1580156110c557600080fd5b505afa1580156110d9573d6000803e3d6000fd5b505050506040513d601f19601f820116820180604052508101906110fd9190612468565b905060008873ffffffffffffffffffffffffffffffffffffffff1663948d8ce6846040518263ffffffff1660e01b815260040161113a9190612637565b60206040518083038186803b15801561115257600080fd5b505afa158015611166573d6000803e3d6000fd5b505050506040513d601f19601f8201168201806040525081019061118a91906124fe565b905060008973ffffffffffffffffffffffffffffffffffffffff1663f8b2cb4f856040518263ffffffff1660e01b81526004016111c79190612637565b60206040518083038186803b1580156111df57600080fd5b505afa1580156111f3573d6000803e3d6000fd5b505050506040513d601f19601f8201168201806040525081019061121791906124fe565b90506040518060a001604052808573ffffffffffffffffffffffffffffffffffffffff16815260200184151581526020018681526020018381526020018281525086868151811061126457fe5b602002602001018190525050505050806001019050611051565b5060008573ffffffffffffffffffffffffffffffffffffffff1663d4cadf686040518163ffffffff1660e01b815260040160206040518083038186803b1580156112c757600080fd5b505afa1580156112db573d6000803e3d6000fd5b505050506040513d601f19601f820116820180604052508101906112ff91906124fe565b905060405180606001604052808873ffffffffffffffffffffffffffffffffffffffff1681526020018381526020018281525089898151811061133e57fe5b60200260200101819052505050505b50505050806001019050610e1b565b60015473ffffffffffffffffffffffffffffffffffffffff1681565b8051606090818167ffffffffffffffff8111801561139557600080fd5b506040519080825280602002602001820160405280156113cf57816020015b6113bc611dac565b8152602001906001900390816113b45790505b50905060005b8281101561036157600554855160009173ffffffffffffffffffffffffffffffffffffffff169063065a80d89088908590811061140e57fe5b60200260200101516040518263ffffffff1660e01b815260040161143291906129dd565b60206040518083038186803b15801561144a57600080fd5b505afa15801561145e573d6000803e3d6000fd5b505050506040513d601f19601f8201168201806040525081019061148291906124fe565b90506000600560009054906101000a900473ffffffffffffffffffffffffffffffffffffffff1673ffffffffffffffffffffffffffffffffffffffff1663f446c1d06040518163ffffffff1660e01b815260040160206040518083038186803b1580156114ee57600080fd5b505afa158015611502573d6000803e3d6000fd5b505050506040513d601f19601f8201168201806040525081019061152691906124fe565b905060405180604001604052808381526020018281525084848151811061154957fe5b602090810291909101015250506001016113d5565b60005473ffffffffffffffffffffffffffffffffffffffff1681565b60025473ffffffffffffffffffffffffffffffffffffffff1681565b60035473ffffffffffffffffffffffffffffffffffffffff1681565b8151606090818167ffffffffffffffff811180156115cf57600080fd5b5060405190808252806020026020018201604052801561160957816020015b6115f6611e44565b8152602001906001900390816115ee5790505b50905060005b8281101561191857600085828151811061162557fe5b60200260200101519050611637611e44565b8173ffffffffffffffffffffffffffffffffffffffff16630e53aae989858151811061165f57fe5b60200260200101516040518263ffffffff1660e01b81526004016116839190612637565b60a06040518083038186803b15801561169b57600080fd5b505afa1580156116af573d6000803e3d6000fd5b505050506040513d601f19601f820116820180604052508101906116d39190612484565b9050600081602001519050600081620f424003905060008473ffffffffffffffffffffffffffffffffffffffff1663579cd3ca6040518163ffffffff1660e01b815260040160206040518083038186803b15801561173057600080fd5b505afa158015611744573d6000803e3d6000fd5b505050506040513d601f19601f820116820180604052508101906117689190612594565b905060008b878151811061177857fe5b602002602001015173ffffffffffffffffffffffffffffffffffffffff166370a08231876040518263ffffffff1660e01b81526004016117b89190612637565b60206040518083038186803b1580156117d057600080fd5b505afa1580156117e4573d6000803e3d6000fd5b505050506040513d601f19601f8201168201806040525081019061180891906124fe565b6001546040517f70a0823100000000000000000000000000000000000000000000000000000000815291925060009173ffffffffffffffffffffffffffffffffffffffff909116906370a0823190611864908a90600401612637565b60206040518083038186803b15801561187c57600080fd5b505afa158015611890573d6000803e3d6000fd5b505050506040513d601f19601f820116820180604052508101906118b491906124fe565b90506040518060a001604052808663ffffffff1681526020018563ffffffff1681526020018463ffffffff168152602001838152602001828152508989815181106118fb57fe5b60200260200101819052505050505050505080600101905061160f565b509150505b92915050565b8151606090818167ffffffffffffffff8111801561194057600080fd5b5060405190808252806020026020018201604052801561197a57816020015b611967611e72565b81526020019060019003908161195f5790505b50905060005b82811015611918576060806119bb88848151811061199a57fe5b60200260200101518885815181106119ae57fe5b60200260200101516103a1565b915091506040518060400160405280838152602001828152508484815181106119e057fe5b60209081029190910101525050600101611980565b8151606090818167ffffffffffffffff81118015611a1257600080fd5b50604051908082528060200260200182016040528015611a4c57816020015b611a39611e8c565b815260200190600190039081611a315790505b50905060005b8281101561191857600454865160009173ffffffffffffffffffffffffffffffffffffffff169063065a80d890899085908110611a8b57fe5b60200260200101516040518263ffffffff1660e01b8152600401611aaf91906129dd565b60206040518083038186803b158015611ac757600080fd5b505afa158015611adb573d6000803e3d6000fd5b505050506040513d601f19601f82011682018060405250810190611aff91906124fe565b90506000868381518110611b0f57fe5b602002602001015173ffffffffffffffffffffffffffffffffffffffff166377c7b8fc6040518163ffffffff1660e01b815260040160206040518083038186803b158015611b5c57600080fd5b505afa158015611b70573d6000803e3d6000fd5b505050506040513d601f19601f82011682018060405250810190611b9491906124fe565b90506000600460009054906101000a900473ffffffffffffffffffffffffffffffffffffffff1673ffffffffffffffffffffffffffffffffffffffff1663f446c1d06040518163ffffffff1660e01b815260040160206040518083038186803b158015611c0057600080fd5b505afa158015611c14573d6000803e3d6000fd5b505050506040513d601f19601f82011682018060405250810190611c3891906124fe565b9050604051806060016040528084815260200183815260200182815250858581518110611c6157fe5b6020026020010181905250505050806001019050611a52565b611c82611d6e565b6006546040517f8a72ea6a0000000000000000000000000000000000000000000000000000000081526000918291829173ffffffffffffffffffffffffffffffffffffffff1690638a72ea6a90611cdd9088906004016129d4565b60c06040518083038186803b158015611cf557600080fd5b505afa158015611d09573d6000803e3d6000fd5b505050506040513d601f19601f82011682018060405250810190611d2d9190612516565b50604080516080810182529a8b5273ffffffffffffffffffffffffffffffffffffffff90911660208b01528901939093526060880152509495945050505050565b604051806080016040528060008152602001600073ffffffffffffffffffffffffffffffffffffffff16815260200160008152602001600081525090565b604051806040016040528060008152602001600081525090565b6040518060600160405280600073ffffffffffffffffffffffffffffffffffffffff16815260200160608152602001600081525090565b6040518060a00160405280600073ffffffffffffffffffffffffffffffffffffffff1681526020016000151581526020016000815260200160008152602001600081525090565b6040805160a08101825260008082526020820181905291810182905260608101829052608081019190915290565b604051806040016040528060608152602001606081525090565b60405180606001604052806000815260200160008152602001600081525090565b600082601f830112611ebd578081fd5b8135611ed0611ecb82612a20565b6129f9565b818152915060208083019084810181840286018201871015611ef157600080fd5b60005b84811015611f19578135611f0781612a59565b84529282019290820190600101611ef4565b505050505092915050565b600082601f830112611f34578081fd5b8135611f42611ecb82612a20565b818152915060208083019084810181840286018201871015611f6357600080fd5b60005b84811015611f19578135611f7981612a59565b84529282019290820190600101611f66565b600082601f830112611f9b578081fd5b8135611fa9611ecb82612a20565b818152915060208083019084810181840286018201871015611fca57600080fd5b6000805b85811015611ff857823580600f0b8114611fe6578283fd5b85529383019391830191600101611fce565b50505050505092915050565b803561191d81612a59565b600060208284031215612020578081fd5b815161202b81612a59565b9392505050565b60008060408385031215612044578081fd5b823561204f81612a59565b9150602083013561205f81612a59565b809150509250929050565b6000602080838503121561207c578182fd5b825167ffffffffffffffff811115612092578283fd5b80840185601f8201126120a3578384fd5b805191506120b3611ecb83612a20565b82815283810190828501858502840186018910156120cf578687fd5b8693505b848410156120fa5780516120e681612a59565b8352600193909301929185019185016120d3565b50979650505050505050565b60008060408385031215612118578182fd5b823567ffffffffffffffff8082111561212f578384fd5b61213b86838701611ead565b93506020850135915080821115612150578283fd5b5061215d85828601611ead565b9150509250929050565b60006020808385031215612179578182fd5b823567ffffffffffffffff81111561218f578283fd5b80840185601f8201126121a0578384fd5b803591506121b0611ecb83612a20565b82815283810190828501858502840186018910156121cc578687fd5b8693505b848410156120fa5780356121e381612a59565b8352600193909301929185019185016121d0565b600060208284031215612208578081fd5b813567ffffffffffffffff81111561221e578182fd5b61222a84828501611f24565b949350505050565b60008060408385031215612244578182fd5b823567ffffffffffffffff8082111561225b578384fd5b61226786838701611f24565b935060209150818501358181111561227d578384fd5b85019050601f8101861361228f578283fd5b803561229d611ecb82612a20565b81815283810190838501858402850186018a10156122b9578687fd5b8694505b838510156122e3576122cf8a82612004565b8352600194909401939185019185016122bd565b5080955050505050509250929050565b60006020808385031215612305578182fd5b823567ffffffffffffffff81111561231b578283fd5b80840185601f82011261232c578384fd5b8035915061233c611ecb83612a20565b8281528381019082850185850284018601891015612358578687fd5b8693505b848410156120fa57803561236f81612a59565b83526001939093019291850191850161235c565b600060208284031215612394578081fd5b813567ffffffffffffffff8111156123aa578182fd5b61222a84828501611f8b565b600080604083850312156123c8578182fd5b823567ffffffffffffffff808211156123df578384fd5b6123eb86838701611f8b565b9350602091508185013581811115612401578384fd5b85019050601f81018613612413578283fd5b8035612421611ecb82612a20565b81815283810190838501858402850186018a101561243d578687fd5b8694505b838510156122e357803561245481612a59565b835260019490940193918501918501612441565b600060208284031215612479578081fd5b815161202b81612a7e565b600060a08284031215612495578081fd5b61249f60a06129f9565b82518152602083015163ffffffff811681146124b9578283fd5b602082015260408301516124cc81612a7e565b604082015260608301516124df81612a7e565b606082015260808301516124f281612a7e565b60808201529392505050565b60006020828403121561250f578081fd5b5051919050565b60008060008060008060c0878903121561252e578182fd5b86519550602087015161254081612a59565b60408801516060890151919650945061255881612a59565b608088015190935061256981612a59565b60a088015190925067ffffffffffffffff81168114612586578182fd5b809150509295509295509295565b6000602082840312156125a5578081fd5b815163ffffffff8116811461202b578182fd5b6000815180845260208085019450808401835b8381101561261d578151805188528381015173ffffffffffffffffffffffffffffffffffffffff16848901526040808201519089015260609081015190880152608090960195908201906001016125cb565b509495945050505050565b80518252602090810151910152565b73ffffffffffffffffffffffffffffffffffffffff91909116815260200190565b73ffffffffffffffffffffffffffffffffffffffff92831681529116602082015260400190565b60006040825261269260408301856125b8565b82810360208401526126a481856125b8565b95945050505050565b60208082528251828201819052600091906040908185019080840286018301878501865b838110156127ab578883037fffffffffffffffffffffffffffffffffffffffffffffffffffffffffffffffc00185528151805173ffffffffffffffffffffffffffffffffffffffff168452878101516060898601819052815181870181905290916080918c9183890191908d015b8184101561278a5780516127538151612a40565b8452808f015115158f8501528d8101518e8501528681015187850152850151858401526001939093019260a0909201918d0161273f565b5050938a0151968a01969096525050948701949250908601906001016126d1565b509098975050505050505050565b602080825282518282018190526000919060409081850190868401855b82811015612825578151805163ffffffff908116865287820151811688870152868201511686860152606080820151908601526080908101519085015260a090930192908501906001016127d6565b5091979650505050505050565b602080825282518282018190526000919060409081850190868401855b82811015612825578151805185528681015187860152850151858501526060909301929085019060010161284f565b602080825282518282018190526000919060409081850190868401855b82811015612825576128ae848351612628565b928401929085019060010161289b565b60208082528251828201819052600091906040908185019080840286018301878501865b838110156127ab577fffffffffffffffffffffffffffffffffffffffffffffffffffffffffffffffc089840301855281518051878552612924888601826125b8565b8983015191508581038a87015261293b81836125b8565b978a01979550505091870191506001016128e2565b602080825282518282018190526000919060409081850190868401855b8281101561282557612980848351612628565b928401929085019060010161296d565b6020808252825182820181905260009190848201906040850190845b818110156129c8578351835292840192918401916001016129ac565b50909695505050505050565b90815260200190565b600f9190910b815260200190565b6040810161191d8284612628565b60405181810167ffffffffffffffff81118282101715612a1857600080fd5b604052919050565b600067ffffffffffffffff821115612a36578081fd5b5060209081020190565b73ffffffffffffffffffffffffffffffffffffffff1690565b73ffffffffffffffffffffffffffffffffffffffff81168114612a7b57600080fd5b50565b8015158114612a7b57600080fdfea2646970667358221220a03bcae07fd9387dafe0c58bd833e229f6d57f04f9afc180d9d2a6239993347b64736f6c63430006080033",
  "source": "pragma solidity ^0.6.0;\npragma experimental ABIEncoderV2;\n\ninterface IERC20Token {\n\tfunction balanceOf(address) external pure returns (uint256);\n}\n\ninterface UniswapFactory {\n    function getExchange(IERC20Token) external pure returns (address);\n}\n\ninterface BancorConverter {\n    struct tokenInfo {\n        uint256 virtualBalance;\n        uint32 ratio;\n        bool isVirtualBalanceEnabled;\n        bool isSaleEnabled;\n        bool isSet;\n    }\n\n    function connectors(IERC20Token) external pure returns (tokenInfo memory);\n    function conversionFee() external pure returns (uint32);\n}\n\ninterface BalancerPool {\n    struct balancerToken {\n        address token;\n        bool isBound;   // is token bound to pool\n        uint index;\n        uint denorm;  // denormalized weight\n        uint balance;\n    }\n    struct balancerData {\n        address pool;\n        balancerToken[] tokens;\n        uint fee;\n    }\n\n    function isPublicSwap() external view returns (bool);\n    function isFinalized() external view returns (bool);\n    function isBound(address t) external view returns (bool);\n    function getFinalTokens() external view returns (address[] memory tokens);\n    function getDenormalizedWeight(address token) external view returns (uint);\n    function getBalance(address token) external view returns (uint);\n    function getSwapFee() external view returns (uint);\n}\n\ninterface SynthetixDepot {\n    function totalSellableDeposits() external pure returns (uint256);\n}\n\ninterface SynthetixRates {\n    function rateForCurrency(bytes32) external pure returns (uint256);\n}\n\ninterface CurveExchange {\n    function balances(int128) external pure returns (uint256);\n    function A() external pure returns (uint256);\n}\n\ninterface BalancerExchange {\n    function pools(int128) external pure returns (uint256);\n}\n\ninterface yToken {\n    function getPricePerFullShare() external pure returns (uint256);\n}\n\ninterface MatchingMarket {\n    function offers(uint256 id) external view returns(uint256 pay_amt, address pay_gem, uint256 buy_amt, address buy_gem, address owner, uint64 timestamp);\n    function getOfferCount(address base, address quote) external view returns(uint256 count);\n    function getBestOffer(address base, address quote) external view returns(uint256 id);\n    function getWorseOffer(uint256 id) external view returns(uint256 worseOfferId);\n}\n\ninterface cToken {\n    function exchangeRateStored() external pure returns (uint256);\n}\n\ncontract Oracle {\n    struct uniswapData {\n        uint256 tokenBalance;\n        uint256 ethBalance;\n    }\n    UniswapFactory public uniFactory = UniswapFactory(0xc0a47dFe034B400B47bDaD5FecDa2621de6c4d95);\n    function getUniswapData(IERC20Token[] memory tokens) public view returns (uniswapData[] memory) {\n        uint256 length = tokens.length;\n\t\tuniswapData[] memory data = new uniswapData[](length);\n\t\tfor (uint256 i = 0; i < length; ++i) {\n            IERC20Token token = tokens[i];\n            address exchange = uniFactory.getExchange(token);\n\t\t\tuint256 tokenBalance = token.balanceOf(exchange);\n\t\t\tuint256 ethBalance = exchange.balance;\n            data[i] = uniswapData({\n                tokenBalance: tokenBalance,\n                ethBalance: ethBalance\n            });\n\t\t}\n\t\treturn data;\n\t}\n\n    struct bancorData {\n        uint32 eWeight;\n        uint32 tWeight;\n        uint32 tFee;\n        uint256 tBalance;\n        uint256 eBalance;\n    }\n    IERC20Token public BNT = IERC20Token(0x1F573D6Fb3F13d689FF844B4cE37794d79a7FF1C);\n    function getBancorData(IERC20Token[] memory tokens, BancorConverter[] memory converters) public view returns (bancorData[] memory) {\n        uint256 length = tokens.length;\n        bancorData[] memory data = new bancorData[](length);\n        for (uint256 i = 0; i < length; ++i) {\n            BancorConverter converter = converters[i];\n            BancorConverter.tokenInfo memory info = converter.connectors(tokens[i]);\n            uint32 eWeight = info.ratio;\n            uint32 tWeight = 1000000 - eWeight;\n            uint32 tFee = converter.conversionFee();\n            uint256 tBalance = tokens[i].balanceOf(address(converter));\n            uint256 eBalance = BNT.balanceOf(address(converter));\n            data[i] = bancorData({\n                eWeight: eWeight,\n                tWeight: tWeight,\n                tFee: tFee,\n                tBalance: tBalance,\n                eBalance: eBalance\n            });\n        }\n        return data;\n    }\n\n\n    function getBalancerData(BalancerPool[] memory pools) public view returns (BalancerPool.balancerData[] memory) {\n        uint256 length = pools.length;\n        BalancerPool.balancerData[] memory data = new BalancerPool.balancerData[](length);\n        for (uint256 i = 0; i < length; ++i) {\n            address pool = address(pools[i]);\n            BalancerPool BP = BalancerPool(pool);\n            bool isPublicSwap = BP.isPublicSwap();\n            bool isFinalized = BP.isFinalized();\n            // Token allows for public swap and pool creation is finalized\n            if (isPublicSwap && isFinalized) {\n                address[] memory balancerTokens = BP.getFinalTokens();\n                BalancerPool.balancerToken[] memory tokenData = new BalancerPool.balancerToken[](balancerTokens.length);\n                for (uint256 j = 0; j < balancerTokens.length; ++j) {\n                    address token = balancerTokens[j];\n                    bool isBound = BP.isBound(token);   // is token bound to pool\n                    uint denorm = BP.getDenormalizedWeight(token);  // denormalized weight\n                    uint balance = BP.getBalance(token);\n                    tokenData[j] = BalancerPool.balancerToken({\n                        token: token,\n                        isBound: isBound,\n                        index: j,\n                        denorm: denorm,\n                        balance: balance\n                    });\n                }\n                uint fee = BP.getSwapFee();\n                data[i] = BalancerPool.balancerData({\n                    pool: pool,\n                    tokens: tokenData,\n                    fee: fee\n                });\n\n            }\n        }\n        return data;\n    }\n\n    struct synthetixData {\n        uint256 rate;\n        uint256 balance;\n    }\n    SynthetixDepot public Depot = SynthetixDepot(0xE1f64079aDa6Ef07b03982Ca34f1dD7152AA3b86);\n    SynthetixRates public Rates = SynthetixRates(0x9D7F70AF5DF5D5CC79780032d47a34615D1F1d77);\n    function getSynthetixData() public view returns (synthetixData memory) {\n        bytes32 ethKey = 0x4554480000000000000000000000000000000000000000000000000000000000;\n        uint256 rate = Rates.rateForCurrency(ethKey);\n        uint256 balance = Depot.totalSellableDeposits();\n        return synthetixData({\n            rate: rate,\n            balance: balance\n        });\n    }\n\n    struct curveData {\n        uint256 balance;\n        uint256 pricePerShare;\n        uint256 A;\n    } \n    CurveExchange public Exchange = CurveExchange(0x45F783CCE6B7FF23B2ab2D70e416cdb7D6055f51);\n    function getCurveData(int128[] memory ids, yToken[] memory tokens) public view returns (curveData[] memory) {\n        uint256 length = ids.length;\n        curveData[] memory data = new curveData[](length);\n        for (uint256 i = 0; i < length; ++i) {\n            uint256 balance = Exchange.balances(ids[i]);\n            uint256 pricePerShare = tokens[i].getPricePerFullShare();\n            uint256 A = Exchange.A();\n            data[i] = curveData({\n                balance: balance,\n                pricePerShare: pricePerShare,\n                A: A\n            });\n        }\n        return data;\n    }\n\n    struct curveSusdData {\n        uint256 balance;\n        uint256 A;\n    } \n    CurveExchange public SusdExchange = CurveExchange(0xA5407eAE9Ba41422680e2e00537571bcC53efBfD);\n    function getCurveSusdData(int128[] memory ids) public view returns (curveSusdData[] memory) {\n        uint256 length = ids.length;\n        curveSusdData[] memory data = new curveSusdData[](length);\n        for (uint256 i = 0; i < length; ++i) {\n            uint256 balance = SusdExchange.balances(ids[i]);\n            uint256 A = SusdExchange.A();\n            data[i] = curveSusdData({\n                balance: balance,\n                A: A\n            });\n        }\n        return data;\n    }\n\n    struct Offer {\n        uint256 id;\n        address maker;\n        uint256 makerAmount;\n        uint256 takerAmount;\n    }\n\n    struct oasisData {\n        Offer[] bids;\n        Offer[] asks;\n    }\n    MatchingMarket oasisMarket = MatchingMarket(0x794e6e91555438aFc3ccF1c5076A74F42133d08D);\n\n    function getOasisData(address[] memory bases, address[] memory quotes) public view returns (oasisData[] memory) {\n        uint256 length = bases.length;\n        oasisData[] memory data = new oasisData[](length);\n        for (uint256 i = 0; i < length; ++i) {\n            (Offer[] memory bids, Offer[] memory asks) = getOrderBook(bases[i], quotes[i]);\n            data[i] = oasisData({\n                bids: bids,\n                asks: asks\n            });\n        }\n        return data;\n    }\n\n    function getOrderBook(address base, address quote) public view returns(Offer[] memory bids, Offer[] memory asks) {\n        uint256 offerId;\n        uint256 bidCount = oasisMarket.getOfferCount(quote, base);\n        if (bidCount == 0) {\n            bids = new Offer[](1);\n            bids[0] = Offer({\n                id: 0,\n                maker: 0x0000000000000000000000000000000000000000,\n                makerAmount: 0,\n                takerAmount: 0\n            });\n        } else {\n            bids = new Offer[](bidCount);\n            offerId = oasisMarket.getBestOffer(quote, base);\n            bids[0] = getOffer(offerId);\n            for (uint256 i = 1; i < bidCount; i++) {\n                offerId = oasisMarket.getWorseOffer(offerId);\n                bids[i] = getOffer(offerId);\n            }\n        }\n\n        uint256 askCount = oasisMarket.getOfferCount(base, quote);\n        if (askCount == 0) {\n            asks = new Offer[](1);\n            asks[0] = Offer({\n                id: 0,\n                maker: 0x0000000000000000000000000000000000000000,\n                makerAmount: 0,\n                takerAmount: 0\n            });\n        } else {\n            asks = new Offer[](askCount);\n            offerId = oasisMarket.getBestOffer(base, quote);\n            asks[0] = getOffer(offerId);\n            for (uint256 i = 1; i < askCount; i++) {\n                offerId = oasisMarket.getWorseOffer(offerId);\n                asks[i] = getOffer(offerId);\n            }\n        }\n    }\n\n        \n    function getOffer(uint256 id) private view returns(Offer memory offer) {\n        (uint256 pay_amt, , uint256 buy_amt, , address owner, ) = oasisMarket.offers(id);\n        offer = Offer(id, owner, pay_amt, buy_amt);\n    }\n\n    function min(uint256 a, uint256 b) internal pure returns (uint256) {\n        return a < b ? a : b;\n    }\n\n    function getCompoundData(cToken[] memory tokens) public view returns (uint256[] memory) {\n        uint256 length = tokens.length;\n\t\tuint256[] memory data = new uint256[](length);\n\t\tfor (uint256 i = 0; i < length; ++i) {\n\t\t\tuint256 rate = tokens[i].exchangeRateStored();\n            data[i] = rate;\n\t\t}\n\t\treturn data;\n    }\n}",
  "sourcePath": "/Users/nathanieloden/Documents/progrimz/ConcourseOpen/oracles/contracts/Oracle.sol",
  "compiler": {
    "name": "solc",
    "version": "0.6.8+commit.0bbfe453.Emscripten.clang"
  },
  "schemaVersion": "3.0.23",
  "updatedAt": "2020-05-26T18:08:12.966Z",
  "networkType": "ethereum",
  "devdoc": {
    "methods": {}
  },
  "userdoc": {
    "methods": {}
  }
}